:020000040800F2
:1000000088340020890B00083D0200083F020008E8
:1000100043020008470200084B02000800000000ED
:100020000000000000000000000000004F02000877
:1000300051020008000000005302000855020008A9
:10004000A30B0008A30B0008A30B0008A30B0008D8
:10005000A30B0008A30B0008A30B0008A30B0008C8
:10006000A30B0008A30B0008A30B0008A30B0008B8
:10007000A30B0008A30B0008A30B0008A30B0008A8
:10008000A30B0008A30B0008A30B0008A30B000898
:10009000A30B0008A30B0008A30B0008A30B000888
:1000A000A30B0008A30B0008A30B0008A30B000878
:1000B000A30B0008170A0008A30B0008A30B0008F5
:1000C000A30B0008A30B0008A30B00085D090008A0
:1000D000790900082D0B0008A30B0008A30B0008EA
:1000E000A30B0008A30B0008A30B0008A30B000838
:1000F000A30B0008A30B0008A30B0008A30B000828
:10010000A30B0008A30B0008A30B0008A30B000817
:10011000A30B0008A30B0008A30B0008A30B000807
:10012000A30B0008A30B0008A30B0008A30B0008F7
:10013000DFF80CD002F0BEFD004800471D020008A9
:100140008834002070B500250024002201213548A4
:1001500002F0EFF8344800684FF4704142683248CA
:10016000006890470446304800684FF46041426898
:100170002D4800689047C5B213E02B4800684FF443
:1001800050414268284800689047044604F45040B3
:1001900008B1C4F30B04214624A000F09AFC681EA9
:1001A000C5B2002DE9D1204800684FF440414268B3
:1001B0001D4800689047012211461A4802F0B9F81C
:1001C00004211C4800F0F2FD20B10421194800F080
:1001D000FCFD03E00421174800F0F5FD70BD10B5EB
:1001E00000F07AFA4FF4165000F053FC12484168C0
:1001F0004FF48270884710488168072088470A4971
:10020000086041F61F4141F2873000F0CDFB10BD80
:100210000421084800F0D9FD00BFFEE7FFF7DFFF2B
:10022000FFF7F6FF000400400000002025640D0ADF
:10023000000000000014014018000020704700BFBB
:10024000FEE700BFFEE700BFFEE700BFFEE7704726
:1002500070477047704700000CB500200190009077
:100260006C48006840F480306A49086000BF694803
:10027000006800F4003000900198401C0190009844
:1002800018B90198B0F5A06FF1D16248006800F488
:10029000003010B10120009001E000200090009893
:1002A000012843D15C48006840F010005A490860BA
:1002B0000846006820F0030008600846006840F027
:1002C0000200086053484068524948600846406848
:1002D00048600846406840F48060486008464068CE
:1002E00020F47C1048600846406840F4E8104860FC
:1002F0000846006840F08070086000BF454800680C
:1003000000F000700028F9D04248406820F0030057
:10031000404948600846406840F00200486000BF1D
:100320003C48406800F00C000828F9D10CBD10B51D
:10033000FFF792FF10BD10B53648006840F001008D
:1003400034490860084640683449084031494860EB
:1003500008460068324908402E490860084600688F
:1003600020F4802008600846406820F4FE004860C1
:100370004FF41F008860FFF7DAFF4FF00060294953
:10038000086010BD10B5002100200022214B5B68E1
:1003900003F00C0121B1042906D0082928D107E077
:1003A000214B224C236027E01F4B204C236023E08D
:1003B000184B5B6803F47010164B5B6803F48032D3
:1003C000022303EB904022B9194B4343174C23609F
:1003D0000DE0104B5B6803F4003323B1144B43432F
:1003E000124C236003E0104B4343104C236003E0A6
:1003F0000D4B0E4C236000BF00BF064B5B68C3F380
:1004000003130C4CE15C094B1B68CB40074C236089
:1004100010BD000000100240002002400000FFF864
:10042000FFFFF6FE08ED00E000127A000400002055
:1004300000093D000800002010B5002400226021C2
:100440009E4801F088FA9D4800F04EFA0446B4F543
:10045000504F21D004DC2CB3B4F5404F23D10FE032
:10046000B4F5604F12D0B4F5704F1CD100220121B9
:10047000934801F05EFF0021904800F04BFA18E02D
:10048000012211468E4801F054FF12E04EF20A019B
:100490008A4800F03FFA0CE04DF20A01874800F06C
:1004A00039FA06E005E04FF43041844800F032FAB2
:1004B00000BF00BF8348007828B14FF480718248A4
:1004C00000F083FC04E04FF480717F4800F07BFC77
:1004D0007C48007808B9012000E0002079490870C4
:1004E00001226021754801F036FA10BD10B50446AE
:1004F0002146724800F026FA0021704800F022FAE6
:1005000010BD70B504460D4600262078082872D22A
:10051000DFE800F00413222F3C4956634FF480417A
:100520006A4800F052FC2846FFF7E0FF06464FF409
:100530008041664800F047FC5EE04FF400416348AC
:1005400000F043FC2846FFF7D1FF06464FF4004178
:100550005E4800F038FC4FE001215C4800F035FCBB
:100560002846FFF7C3FF06460121584800F02BFC40
:1005700042E00221554800F028FC2846FFF7B6FF6C
:1005800006460221514800F01EFC35E004214F4888
:1005900000F01BFC2846FFF7A9FF064604214B4844
:1005A00000F011FC28E00821484800F00EFC284625
:1005B000FFF79CFF06460821444800F004FC1BE0BE
:1005C0000221414800F001FC2846FFF78FFF064654
:1005D00002213D4800F0F7FB0EE004213A4800F00C
:1005E000F4FB2846FFF782FF06460421364800F058
:1005F000EAFB01E0FFE700BF00BF304670BD08B571
:100600000121102000F0EEFD4CF20F00ADF80000CB
:1006100010208DF8030003208DF8020069462B4856
:1006200000F024FB0121042000F0DCFD0620ADF8E1
:1006300000006946244800F019FB4FF4804123482C
:1006400000F0C1FB4FF40041204800F0BCFB012149
:100650001E4800F0B8FB02211C4800F0B4FB042146
:100660001A4800F0B0FB0821184800F0ACFB02214A
:10067000154800F0A8FB0421134800F0A4FB08BDB6
:1006800010B5044612480480FFF7B9FF21460B4815
:1006900000F0D0F810BD70B50546082003F042F810
:1006A000044625700A2060700A486060204670BDCC
:1006B00010B50446204603F00DF810BD003001408F
:1006C0000004004028000020000801400010014004
:1006D000180000200305000808B50121242000F0BF
:1006E00081FD4FF48070ADF8000010208DF80300FC
:1006F00003208DF802006946094800F0B7FA04218A
:10070000084800F062FB0420ADF800006946054887
:1007100000F0ACFA4FF48071014800F056FB08BDC0
:10072000000801400014014038B504460D4603207E
:100730008DF80200B5F5827F36D19648844217D1F4
:100740000121042000F04EFDA020ADF8000018208B
:100750008DF803006946904800F088FA4020ADF813
:10076000000004208DF8030069468B4800F07EFAF3
:100770008A48844218D10121082000F033FD4FF44B
:100780002040ADF8000018208DF803006946844829
:1007900000F06CFA2014ADF8000004208DF803007E
:1007A00069467F4800F062FA25BB7A48844221D12D
:1007B0000121042000F016FD6020ADF80000182093
:1007C0008DF803006946744800F050FA8020ADF8B7
:1007D000000004208DF8030069466F4800F046FAD7
:1007E0001020ADF8000048208DF8030069466A48E3
:1007F00000F03CFA38BD38B504466648844202D160
:1008000023208DF800006548844202D124208DF811
:1008100000004FF4A06000F04DFF01208DF80100B2
:1008200003208DF8020001208DF80300684600F0D7
:1008300046FF38BD30B585B005460C465548854263
:1008400004D05648854201D005B030BDB4F5827F52
:1008500001D004B1F8E721462846FFF765FF14B937
:100860002846FFF7C8FF4B48854206D10121801476
:1008700000F0B8FCE814ADF804004848854206D101
:100880000121001400F0BBFC0020ADF804001CB9ED
:100890000020ADF80A0003E04FF40070ADF80A0044
:1008A000ADF802400020ADF800000220ADF80600CF
:1008B0000120ADF808003820ADF80C000020ADF89C
:1008C0000E000720ADF810006946284600F086FFAC
:1008D0000121284601F027F824B901226021284689
:1008E00001F039F800BFAFE770B50546002407E016
:1008F000601CC4B22B480078844201DD002070BD2A
:100900000121284601F093F80028F1D0284601F093
:100910003DF8F4E770B505460E46002406E0601C7D
:10092000C4B220480078844200DD70BD0221284610
:1009300001F07DF80028F2D03146284601F024F875
:1009400000BFF2E770B504460D4629462046FFF782
:10095000E1FF2046FFF7C8FF70BD704710B560216A
:100960000C4801F070F828B160210A4801F085F8C0
:10097000FFF762FD10BD704710B56021074801F018
:1009800062F828B16021054801F077F8FFF7F3FF1E
:1009900010BD000000300140000801400038004058
:1009A000000C0140290000207FB505460C460121BE
:1009B000022000F024FCADF80850ADF804400020FF
:1009C000ADF80A00ADF8060001A9194801F03AF99E
:1009D00001221146164801F0ACFC4FF4A06000F073
:1009E00069FE1D208DF8000001208DF80100032014
:1009F0008DF8020001208DF80300684600F05FFECC
:100A000001210B4801F07AFC7FBD10B5084801F0C8
:100A100045F810BD704710B50121054801F037FFBA
:100A200028B10121024801F043FFFFF78BFB10BD05
:100A30000004004008B50121042000F0D3FB03208E
:100A40008DF802004FF40070ADF8000018208DF80A
:100A500003006946484800F009F94FF48060ADF89A
:100A6000000004208DF803006946434800F0FEF8BA
:100A700008BD08B525208DF8000003208DF8010081
:100A80008DF8020001208DF80300684600F017FE83
:100A900008BD1FB504460121880300F0A3FBFFF742
:100AA000C9FFFFF7E6FF00940020ADF80400ADF8A1
:100AB0000600ADF80800ADF80C000C20ADF80A00F7
:100AC00069462E4800F035FC01212C4800F0BDFCA1
:100AD0001FBD0FB470B58AB00024002600250FA8F2
:100AE000019002A8019A0E9902F084F9C4B2002084
:100AF00001900FE000BF8021204800F081FD002818
:100B0000F9D03046711CCEB202A90D5C29461B48B3
:100B100000F008FD2000A4F10101CCB2EAD10AB036
:100B200070BC5DF814FB16487047704710B5002480
:100B300040F22551114800F079FDD8B10F4800F07E
:100B4000F5FCC4B2042C0DD00E480078402800DB20
:100B500010BD0C4801780078401C0A4A1070084803
:100B6000445407E0074801780548FFF7DEFF0020FE
:100B70000449087000BFEBE700080140003801405D
:100B8000480000202A000020064880470648004709
:100B9000FEE7FEE7FEE7FEE7FEE7FEE7FEE7FEE72D
:100BA000FEE7FEE7370300083101000810B50446F0
:100BB000CC48844208D10121042000F02DFB002103
:100BC000042000F029FB46E0C748844208D10121F7
:100BD000082000F021FB0021082000F01DFB3AE076
:100BE000C248844208D10121102000F015FB0021E9
:100BF000102000F011FB2EE0BD48844208D10121F5
:100C0000202000F009FB0021202000F005FB22E05D
:100C1000B848844208D10121402000F0FDFA0021AB
:100C2000402000F0F9FA16E0B348844208D10121CF
:100C3000802000F0F1FA0021802000F0EDFA0AE0B7
:100C4000AE48844207D10121801500F0E5FA002169
:100C5000A01500F0E1FA10BD10B50121084600F022
:100C6000DBFA0021012000F0D7FA10BD2DE9F04198
:100C7000024600250026002000230024002791F8CA
:100C800003C00CF00F0591F803C00CF0100CBCF180
:100C9000000F03D091F802C04CEA050591F800C09E
:100CA000BCF1000F31D0146800202BE04FF0010C94
:100CB0000CFA00F3B1F800C00CEA03069E4220D102
:100CC00083004FF00F0C0CFA03F7BC4305FA03FC4A
:100CD0004CEA040491F803C0BCF1280F06D14FF090
:100CE000010C0CFA00FCC2F814C00AE091F803C031
:100CF000BCF1480F05D14FF0010C0CFA00FCC2F812
:100D000010C0401C0828D1D31460B1F800C0BCF159
:100D1000FF0F34DD546800202EE000F1080C4FF086
:100D2000010808FA0CF3B1F800C00CEA03069E4271
:100D300021D183004FF00F0C0CFA03F7BC4305FAE6
:100D400003FC4CEA040491F803C0BCF1280F05D160
:100D500000F1080C08FA0CF8C2F8148091F803C0EE
:100D6000BCF1480F07D100F1080C4FF0010808FA58
:100D70000CF8C2F81080401C0828CED35460BDE89F
:100D8000F0814FF6FF710180022181700421C17052
:100D900070470246002093680B400BB1012000E031
:100DA000002070470146886880B2704702460020E4
:100DB000D3680B400BB1012000E0002070470146D2
:100DC000C86880B2704701617047416170470AB1DD
:100DD000016100E041617047C16070474FF48032AB
:100DE0000A43826181618261826982697047024639
:100DF0000020434B18684FF68073184040EA0210F9
:100E000008433F4B186070473E49C8617047F0B5D2
:100E10000A46002300240021002500F00046B6F118
:100E2000004F02D1364EF16901E0354E7168C0F3D2
:100E3000034583B200F44016B6F5401F08D121F0F7
:100E400070612F4E766826F070662D4F7E6012E03E
:100E500000F48016B6F5801F06D1032606FA05F4C5
:100E6000A14341F0706106E0460D360103FA06F633
:100E7000B14341F0706122B1460D360103FA06F626
:100E8000314300F00046B6F1004F02D11C4EF16133
:100E900001E01B4E7160F0BD30B500228B071C0FC6
:100EA0000F2303FA04F2164B08338C1053F8243046
:100EB0009343134C08348D1044F8253023468C108E
:100EC00053F824308C07240F00FA04F423430C4C0D
:100ED00008348D1044F8253030BD0A49DC310860F3
:100EE0007047000000080140000C01400010014064
:100EF0000014014000180140001C01400020014086
:100F00000000014000002042DF48006840F001007E
:100F1000DD49086008464068DC490840DA49486015
:100F200008460068DA490840D74908600846006862
:100F300020F4802008600846406820F4FE004860E5
:100F40004FF41F0088607047CF49096821F4803151
:100F5000CD4A11601146096821F480211160B0F575
:100F6000803F03D0B0F5802F0ED106E0C649096856
:100F700041F48031C44A116007E0C349096841F473
:100F8000A021C14A116000E000BF00BF704710B54A
:100F900001460022002300204A11012A02D1BA4C46
:100FA000236806E0022A02D1B74C236A01E0B64C5E
:100FB000636A01F01F02012494401C400CB101201F
:100FC00000E0002010BD38B500200090002400256E
:100FD00000BF3120FFF7DBFF05460098401C009062
:100FE0000098B0F5A06F01D0002DF2D03120FFF7AE
:100FF000CEFF08B1012400E00024204638BD0146A0
:101000000020A14A106820F0F80040EAC1001060FA
:101010007047A04908607047024600209A4B586804
:1010200020F47C1042EA01031843974B5860704744
:1010300098490866704701460020934A506820F09E
:1010400003000843506070478F48406800F00C0070
:101050007047014600208C4A506820F0F000084399
:101060005060704701460020874A506820F4E060D5
:1010700008435060704701460020834A506820F4BE
:10108000605040EAC1005060704729B17E4A527AF0
:1010900002437D4B5A7204E07B4A527A82437A4B78
:1010A0005A7270477B49D83108607047014600206A
:1010B000754A506820F44040084350607047002152
:1010C000714A20321170704A82F82010012802D033
:1010D00004280AD104E001216B4A2032117005E096
:1010E0000521694A2032117000E000BF00BF70473F
:1010F0006949086070476449096A0143624A11629C
:101100007047654944390860704730B500210022B6
:10111000002400235C4D6D6805F00C0121B1042909
:1011200005D0082923D105E05C4D056022E05B4D28
:1011300005601FE0544D6D6805F47012524D6D68E6
:1011400005F48034022505EB92421CB9544D5543F9
:1011500005600BE04C4D6D6805F400351DB1504D38
:101160005543056002E04D4D5543056002E04B4D8F
:10117000056000BF00BF444D6D6805F0F00109092E
:10118000484D6B5C0568DD4045603F4D6D6805F47A
:10119000E061090A434D6B5C4568DD4085603A4D6E
:1011A0006D6805F46051C90A3E4D6B5C4568DD40D1
:1011B000C560354D6D6805F44041890B3A4D6B5C57
:1011C000C568B5FBF3F5056130BD29B12E4A5269FA
:1011D00002432D4B5A6104E02B4A526982432A4B49
:1011E0005A61704729B1284A92690243264B9A6195
:1011F00004E0254A92698243234B9A61704729B1E2
:10120000214AD2690243204BDA6104E01E4AD269C6
:1012100082431D4BDA61704729B11B4AD2680243F1
:10122000194BDA6004E0184AD2688243164BDA6040
:10123000704729B1144A12690243134B1A6104E042
:10124000114A12698243104B1A61704712494039A2
:10125000086070470F49C86470470B49C8717047F0
:101260000948406A40F0807007494862704701466B
:101270000020054A92680A400AB1012000E00020DF
:101280007047014988727047001002400000FFF863
:10129000FFFFF6FE000042428004424200127A0044
:1012A00000093D002B0000203B00002010B5044643
:1012B000FB48844209D101218803FFF7ADFF0021DB
:1012C0004FF48040FFF7A8FF32E0F648844209D18E
:1012D00001214804FFF7ADFF00214FF40030FFF774
:1012E000A8FF25E0F048844209D101218804FFF7D6
:1012F000A0FF00214FF48020FFF79BFF18E0EB4890
:10130000844209D10121C804FFF793FF00214FF463
:101310000020FFF78EFF0BE0E548844208D1012151
:101320000805FFF786FF00214FF48010FFF781FFCB
:1013300010BD2DE9F04786B005460E460024A246B2
:1013400000BFA1460027B08900B100BF2F462C8AFC
:101350004CF6FF700440F08804432C82AC894EF6B2
:10136000F3100440B088318908437189084304436D
:10137000AC81AC8A4FF6FF400440B0890443AC8294
:1013800001A8FFF7C2FEC648874202D1DDF810A0CF
:1013900001E0DDF80CA0A88900F4004040B10AEBA0
:1013A000CA0000EB0A1031684900B0FBF1F807E011
:1013B0000AEBCA0000EB0A1031688900B0FBF1F8B3
:1013C0006420B8FBF0F004012009642101FB1089BE
:1013D000A88900F4004040B1322000EBC900B0FB06
:1013E000F1F000F00700044308E0322000EB0910A0
:1013F0006421B0FBF1F000F00F0004432C8106B033
:10140000BDE8F0874FF41651016000218180C18052
:1014100001810C21418100218181704710B5024674
:101420000020108A4FF2FF0318400B884C8823439A
:101430008C882343CC8823431843108210BD00219D
:10144000018041808180C180704721B1828942F44E
:101450000052828104E082894DF6FF731A40828136
:101460007047F0B50346002400260025002040F612
:101470006A17B94200D100BF1846C1F3421401F007
:101480001F06012707FA06F5012C01D10C3004E0F4
:10149000022C01D1103000E014301AB107682F433C
:1014A000076002E00768AF430760F0BD1AB1838AA6
:1014B0000B43838202E0838A8B4383827047028AD4
:1014C0004FF6F0731A400282028A0A430282704782
:1014D00082894FF2FF731A40828182890A43828196
:1014E000704721B1828942F00202828104E0828940
:1014F0004FF6FD731A4082817047028A4FF6DF7300
:101500001A400282028A0A430282704721B1028A8B
:1015100042F48042028204E0028A4BF6FF731A40D2
:1015200002827047C1F308028280704701468888B2
:10153000C0F308007047818941F001018181704743
:10154000028BD2B20283028B42EA012202837047ED
:10155000028B02F47F420283028B0A4302837047AC
:1015600021B1828A42F02002828204E0828A4FF610
:10157000DF731A408282704721B1828A42F01002E2
:10158000828204E0828A4FF6EF731A4082827047AB
:1015900021B1828A42F00802828204E0828A4FF6F8
:1015A000F7731A408282704721B1828942F4004267
:1015B000828103E08289C2F30E028281704721B1E9
:1015C000828A42F40062828204E0828A4FF2FF73D0
:1015D0001A4082827047828A4FF6FB731A408282D9
:1015E000828A0A438282704721B1828A42F00202D3
:1015F000828204E0828A4FF6FD731A40828270472D
:1016000002460020B1F5007F00D100BF13880B40D7
:101610000BB1012000E00020704701F40072B2F528
:10162000007F00D100BFCA430280704770B50246F8
:10163000002400230025002040F66A16B14200D1A4
:1016400000BFC1F3421501F01F03012606FA03F3A0
:10165000012D02D19689334006E0022D02D1168A6F
:10166000334001E0968A33400C12012606FA04F456
:101670001688344013B10CB1012000E0002070BD89
:1016800010B50022002340F66A14A14200D100BF29
:101690000A1201249440A3B2DC43048010BD000070
:1016A000003801400044004000480040004C004029
:1016B0000050004031490143314A1160704770B514
:1016C000002100230F22C47804B32D4C246804F4B5
:1016D000E064C4F5E064210AC1F10403CA4044781F
:1016E00004FA03F18478144021430901254C06785B
:1016F000A155047804F01F050124AC4005786D1154
:10170000AD0005F1E025C5F8004109E0047804F0DA
:101710001F050124AC401C4D0678761145F8264083
:1017200070BD1A4A0A400243154B1B1F1A607047CE
:1017300039B1134A121D12680243114B1B1D1A6066
:1017400006E00F4A121D126882430D4B1B1D1A60E2
:101750007047042808D14FF0E021096941F00401E5
:101760004FF0E022116107E04FF0E021096921F01C
:1017700004014FF0E0221161704700000000FA05FB
:101780000CED00E000E400E080E100E080FFFF1FDE
:1017900010B50446BE48844208D101218014FFF7E9
:1017A0003BFD0021A014FFF737FD16E0B948844245
:1017B00008D101210014FFF73CFD00212014FFF7A0
:1017C00038FD0AE0B448844207D10121C013FFF775
:1017D00030FD0021E013FFF72CFD10BD10B50022F5
:1017E000028802F441520B884C8823438C8823439F
:1017F000CC8823430C8923434C8923438C8923437E
:10180000CC8923431A430280838B4FF2FF74234019
:1018100083830B8A038210BD2DE9F04F85B0054606
:101820000C464FF0000902274FF000084FF0010B63
:101830000026B246A88B4FF240010840A883022040
:101840002884B5F81C90A068022801D100BF38E0B8
:10185000A08810B94FF0010B01E04FF0020B8D484A
:10186000854200D100E000BF6846FFF74EFCDDF87E
:1018700000A0E088B0F5007F0AD14FEA1A2000EB03
:1018800080004000A168B0FBF1F0401D86B20BE083
:101890004FEA4B10BAFBF0F000EB80004000A1686B
:1018A000B0FBF1F0401D86B20A20B6FBF0F606F060
:1018B0000108A6EB0800C0F34F074FF6FF7000EADF
:1018C0000828022F01DBFF2F02DD02274FF000085E
:1018D000E08840EA080038432884A088A1890843AA
:1018E000618808432188084340F4006040EA090900
:1018F000A5F81C9005B0BDE8F08F00210180418063
:101900008180C180018141818181C1810721018262
:1019100070470021018041808180C1800221816067
:1019200000218181704721B1028842F0400202808B
:1019300004E002884FF6BF731A400280704721B15D
:10194000828B42F48062828304E0828B4FF6FF3305
:101950001A408283704730B5002400230C11012502
:10196000A540ABB21AB185881D43858002E0858809
:101970009D43858030BD1AB183880B43838002E08C
:1019800083888B43838070478181704701468889B3
:1019900070474FF6FF62914204D0028842F4807291
:1019A000028004E002884FF6FF631A40028070470D
:1019B00021B1828842F00402828004E082884FF6DE
:1019C000FB731A408280704702884FF2FF731A40FF
:1019D000028002880A4302807047018841F48051E6
:1019E0000180704721B1028842F40052028004E075
:1019F00002884DF6FF731A400280704702460020AD
:101A0000012901D0108B00E0908A70470146088AB6
:101A10007047B1F5804F04D1028842F480420280C1
:101A200004E002884BF6FF731A40028070470246BA
:101A3000002013890B400BB1012000E0002070470B
:101A4000CA4302817047F0B50246002000240023FB
:101A5000002501F00F070126BE40B4B20B1101268C
:101A60009E40B3B2968806EA03051689264016B151
:101A70000DB1012000E00020F0BD10B5002201F002
:101A80000F040123A3409AB2D343038110BD000089
:101A90000030014000380040003C004010B50446D2
:101AA000FE48844208D10121C014FFF7B5FB002194
:101AB000E014FFF7B1FBC4E0B4F1804F08D101217D
:101AC0000846FFF7B6FB00210120FFF7B2FBB8E0A4
:101AD000F348844208D101210220FFF7AAFB00212C
:101AE0000220FFF7A6FBACE0EE48844208D10121BA
:101AF0000420FFF79EFB00210420FFF79AFBA0E0E3
:101B0000E948844208D101210820FFF792FB002117
:101B10000820FFF78EFB94E0E448844208D10121BD
:101B20001020FFF786FB00211020FFF782FB88E0E2
:101B3000DF48844208D101212020FFF77AFB0021F1
:101B40002020FFF776FB7CE0DA48844208D10121AF
:101B50004014FFF761FB00216014FFF75DFB70E0AC
:101B6000D548844209D10121C804FFF755FB002163
:101B70004FF40020FFF750FB63E0D048844209D1C6
:101B800001210805FFF748FB00214FF48010FFF703
:101B900043FB56E0CA48844209D101214805FFF7BA
:101BA0003BFB00214FF40010FFF736FB49E0C5482E
:101BB000844208D101214020FFF73BFB0021402057
:101BC000FFF737FB3DE0C048844208D10121802067
:101BD000FFF72FFB00218020FFF72BFB31E0BB48F4
:101BE000844208D101218015FFF723FB0021A015B5
:101BF000FFF71FFB25E0B648844209D10121080404
:101C0000FFF70AFB00214FF48030FFF705FB18E0D7
:101C1000B048844209D101214804FFF7FDFA0021B0
:101C20004FF40030FFF7F8FA0BE0AB48844208D1DC
:101C300001218804FFF7F0FA00214FF48020FFF71C
:101C4000EBFA10BD00220288944B98420ED0994BBB
:101C500098420BD0B0F1804F08D0914B984205D0FC
:101C6000904B984202D0904B984204D14FF68F731C
:101C70001A404B881A438D4B984207D08C4B9842A0
:101C800004D04FF6FF431A40CB881A4302808B885A
:101C900083850B880385814B98420BD0854B9842F6
:101CA00008D08B4B984205D08A4B984202D08A4B81
:101CB000984201D10B7A038601238382704770B565
:101CC000002400220023058C4FF6FE763540058463
:101CD000028C8388048B4FF68F752C40B51E2C40E8
:101CE0000D882C43751E2A400D892A434D882A43AE
:101CF0006A4DA8420BD06F4DA84208D0744DA8423F
:101D000005D0744DA84202D0734DA84213D14FF6AE
:101D1000F7752A404D892A434FF6FB752A408D8876
:101D20002A434FF6FF652B404FF6FF552B408D8918
:101D30002B43CD892B4383800483CD888586028401
:101D400070BD70B5002400220023058C4FF6EF769D
:101D500035400584028C8388048B48F6FF752C403F
:101D60004FF6FF452C400D884FF6FF7606EA052515
:101D70002C434FF6DF752A400D8906EA05152A43E4
:101D80004D8806EA05152A43444DA84202D0494D24
:101D9000A8421DD14FF67F752A404D894FF6FF7638
:101DA00006EA05152A434FF6BF752A408D8806EAD4
:101DB00005152A434FF6FF352B404FF2FF752B4098
:101DC0008D8906EA85052B43CD8906EA85052B43D7
:101DD00083800483CD880587028470BD70B500249C
:101DE00000220023058C4FF6FF6635400584028CE7
:101DF0008388848B4FF68F752C404FF6FC752C40F2
:101E00000D882C434FF6FF552A400D894FF6FF767B
:101E100006EA05252A434D8806EA05252A431F4D73
:101E2000A84202D0234DA8421DD14FF2FF752A408F
:101E30004D894FF6FF7606EA05252A434FF6FF3512
:101E40002A408D8806EA05252A434EF6FF752B4069
:101E50004DF6FF752B408D8906EA05152B43CD897C
:101E600006EA05152B4383808483CD888587028409
:101E700070BD70B5002200230024058C4EF6FF765D
:101E800035400584038C8488828B48F6FF752A4090
:101E90004FF6FF452A400D8820E00000002C01404D
:101EA0000004004000080040000C0040001000400A
:101EB0000014004000340140004C0140005001403B
:101EC0000054014000180040001C00400020004069
:101ED0000040014000440140004801404FF6FF76B9
:101EE00006EA05252A434DF6FF752B400D8906EAC3
:101EF00005352B434D8806EA05352B43FA4DA8429C
:101F000002D0FA4DA84208D14BF6FF752C408D89BE
:101F10004FF6FF7606EA85152C4384808283CD88B0
:101F2000A0F84050038470BD828B4FF2FF331A40FB
:101F30008283828B4FF6FF7303EA01231A43828365
:101F40007047F0B50C461546002200210026078C8C
:101F50004EF6FF7C07EA0C070784828B018C4FF654
:101F6000FF7707EA043640F6FF473A404FF6FF771F
:101F700007EA05273A434FF6FF7707EA03373A4364
:101F8000D94FB8420ED0D94FB8420BD0B0F1804FE4
:101F900008D0D74FB84205D0D64FB84202D0D64F5E
:101FA000B84206D14DF6FF77394046F480573943A1
:101FB00005E047F6FF57394044F4805739438283A0
:101FC0000184F0BD828B4FF6F3731A408283828BBB
:101FD0000A4382837047F0B50C4615460022002163
:101FE0000026078C4FF6FF6C07EA0C070784828BEC
:101FF000018C4FF6FF7707EA04264FF60C773A403C
:102000004FF6FF7707EA03172F433A43B64FB8421C
:102010000ED0B64FB8420BD0B0F1804F08D0B44FBD
:10202000B84205D0B34FB84202D0B34FB84206D140
:102030004FF6FF57394046F48077394305E04FF2B9
:10204000FF57394044F48077394382830184F0BDDF
:10205000028B4FF2FF331A400283028B4FF6FF735D
:1020600003EA01231A4302837047F0B50C46154674
:10207000002200210026078C4FF6EF7C07EA0C07B0
:102080000784028B018C4FF6FF7707EA041640F6AF
:10209000FF473A404FF6FF7707EA03373A434FF6D8
:1020A000FF7707EA05273A438F4FB8420ED08F4F8C
:1020B000B8420BD0B0F1804F08D08D4FB84205D058
:1020C0008C4FB84202D08C4FB84206D14FF6DF7722
:1020D000394046F01007394305E04FF65F77394045
:1020E00044F01007394302830184F0BD028B4FF6A0
:1020F000F3731A400283028B0A4302837047F0B5E0
:102100000C46154600220021068C4FF6FE773E4015
:102110000684028B018C4FF60C7632407E1C06EA58
:1021200003162E433243704EB0420ED06F4EB04273
:102130000BD0B0F1804F08D06D4EB04205D06D4E3F
:10214000B04202D06C4EB04206D14FF6FD7631401F
:1021500044F00106314305E04FF6F576314044F096
:102160000106314302830184F0BD70B505460C467B
:102170005D4885420ED05D4885420BD0B5F1804F59
:1021800008D05B48854205D05A48854202D05A485B
:10219000854200D100E000BF208850B92389A28881
:1021A00061882846FFF7ABFFE1882846FFF79EFFCE
:1021B00025E0208804280AD12389A288618828463E
:1021C000FFF753FFE1882846FFF742FF17E020881A
:1021D00008280AD12389A28861882846FFF7FBFED8
:1021E000E1882846FFF7EEFE09E02389A28861888E
:1021F0002846FFF7A6FEE1882846FFF795FE70BD4A
:102200002DE9F04105460C4600260127608808B9F3
:10221000022600E00026A088012801D1022700E064
:1022200001272088A0B92389A28861882846FFF762
:1022300066FFE1882846FFF759FF23893A46314671
:102240002846FFF712FFE1882846FFF701FF13E059
:102250002389A28861882846FFF707FFE18828467E
:10226000FFF7F6FE23893A4631462846FFF747FF37
:10227000E1882846FFF73AFFBDE8F0810A884B88DD
:102280001A438B881A43CB881A430B891A434B890C
:102290001A438B891A43A0F8442070474FF6FF7108
:1022A000818000210180C18041800172704700213E
:1022B000018041808180C180018141818181C18112
:1022C0007047002101804180012181800021C1806F
:1022D000018170470021018041808180C18001819E
:1022E0004181818170470000002C01400034014091
:1022F0000004004000080040000C004021B10288AA
:1023000042F00102028004E002884FF6FE731A4098
:102310000280704731B1B0F8442042F40042A0F886
:10232000442005E0B0F84420C2F30E02A0F8442097
:1023300070471AB183890B43838102E083898B4301
:10234000838170478182704741EA0203A0F84830D8
:1023500070471AB183890B43838102E083898B43E1
:102360008381704701894FF6F872114001817047EF
:102370000A46002101894FF68F73194011430181EC
:10238000704730B504460D4629462046FFF7F0FF5A
:10239000208940F00700208130BD2DE9F04104463E
:1023A0000D4616461F46602D06D13B46012231469A
:1023B0002046FFF75AFE05E03B4601223146204603
:1023C000FFF79DFE29462046FFF7D2FF208940F007
:1023D00007002081BDE8F08130B50C46002101895D
:1023E000C9B24FF6FF7505EA032515432543294376
:1023F000018130BD2DE9F04105460E46174698464D
:10240000002443463A4631462846FFF7E5FF2C892B
:102410004FF6F870044044F007044FF68F70044004
:1024200044F070042C81BDE8F081F0B504460D46FF
:1024300016461F463B46324629462046FFF7CCFF4C
:10244000208940F480402081F0BD01858282704760
:102450000A46002101884FF68F731940114301800D
:102460007047F0B50C4615461E4600210022002399
:102470000189028B038C4FF6F877394021434FF6E0
:10248000FC473A4040F201173A434FF6DD773B40B4
:102490004FF6FF7707EA06172F433B43018102837C
:1024A0000384F0BD0A460021018B4FF68F7319405B
:1024B0001143018370470A460021018B48F6FF73E0
:1024C00019404FF6FF7303EA022319430183704753
:1024D0000A460021818B4FF68F7319401143818387
:1024E00070470A460021818B48F6FF7319404FF66A
:1024F000FF7303EA022319438183704721B10288E5
:1025000042F08002028004E002884FF67F731A4096
:102510000280704721B1828842F00402828004E088
:1025200082884FF6FB731A408280704721B18288FF
:1025300042F00802828004E082884FF6F7731A4066
:102540008280704721B1828842F00102828004E0DB
:1025500082884FF6FE731A40828070470A46002137
:10256000018B4FF6F77319401143018370470A46F8
:102570000021018B4FF2FF7319404FF6FF7303EAFE
:1025800002231943018370470A460021818B4FF6CD
:10259000F77319401143818370470A460021818BEC
:1025A0004FF2FF7319404FF6FF7303EA02231943FA
:1025B000818370470A460021018B4FF6FB73194057
:1025C0001143018370470A460021018B4FF6FF3308
:1025D00019404FF6FF7303EA022319430183704742
:1025E0000A460021818B4FF6FB731940114381830A
:1025F00070470A460021818B4FF6FF3319404FF692
:10260000FF7303EA02231943818370470A460021BE
:10261000018B4FF67F7319401143018370470A46BF
:102620000021018BC1F30E014FF6FF7303EA022371
:102630001943018370470A460021818B4FF67F734F
:1026400019401143818370470A460021818BC1F3F1
:102650000E014FF6FF7303EA02231943818370478B
:102660000A460021018C4FF6FD7319401143018485
:1026700070470A460021018C4FF6F7731940114349
:10268000018470470A460021018C4FF6DF73194020
:102690004FF6FF7303EA02131943018470470A4699
:1026A0000021018C4FF67F7319404FF6FF7303EA48
:1026B00002131943018470470A460021018C4FF62A
:1026C000FF5319404FF6FF7303EA022319430184B5
:1026D00070470A460021018C4FF2FF7319404FF6F4
:1026E000FF7303EA02231943018470470A4600215D
:1026F000018C4DF6FF7319404FF6FF7303EA023366
:1027000019430184704730B5002301248C40A3B2E3
:10271000048C9C430484048C02FA01F5ADB22C4372
:10272000048430BD30B5002304248C40A3B2048C53
:102730009C430484048C02FA01F5ADB22C4304845A
:1027400030BD70B50346002000241846183001251E
:102750008D40ACB21D8CA5431D8409B1082909D157
:1027600000EB6100056825F07005056005681543FC
:1027700005600EE00D1FC5F34E052844056825F4DD
:10278000E045056005684FF6FF7606EA0226354308
:10279000056070BD21B1028842F00202028004E0AF
:1027A00002884FF6FD731A400280704721B10288FB
:1027B00042F00402028004E002884FF6FB731A40E4
:1027C0000280704721B1828842F08002828004E05A
:1027D00082884FF67F731A408280704702884FF6D6
:1027E000F7731A40028002880A4302807047828889
:1027F0004FF68F731A40828082880A438280704726
:1028000002894FF6F8731A40028102890A43028155
:10281000704702894FF67F731A40028102890A438A
:102820000281704781847047818570478186704737
:102830000187704781877047A0F840107047028871
:102840004FF6FF431A40028002880A430280704715
:102850000146888E70470146088F70470146888F71
:1028600070470146B1F8400070470146888C7047B8
:102870000146088D704702460020138A0B400BB1B9
:10288000012000E000207047CA430282704730B543
:102890000246002000230024158A05EA01039589D9
:1028A00005EA010413B10CB1012000E0002030BDA5
:1028B000CA430282704730B50B46014600202022F1
:1028C000012409E021FA02F59D4205D303FA02F53D
:1028D000491B04FA02F52844151EA2F10102F1DC9D
:1028E00030BD2DE9F05F0546002092469B468846A4
:1028F0000646814640241BE028464146474622467C
:1029000000F0F9F953465A46C01A914110D31146C6
:102910001846224600F0E0F92D1A67EB01084F46F1
:1029200022460120002100F0D7F917EB00094E41A3
:10293000201EA4F10104DFDC484631462A46434606
:10294000BDE8F09F2DE9FE4F804681EA0300C00FED
:102950000C46009021F0004123F00045B8EB020046
:10296000A94105D24046214690461C460B460246E8
:1029700023F00040104347D0270DC7F30A00C3F3EC
:102980000A510290401A019040286BDAC3F31300F9
:1029900040F4801B0098924620B10023D2EB030A3A
:1029A00063EB0B0B01985946C0F14002504600F012
:1029B00093F906460D4650465946019A00F0ABF988
:1029C00010EB08006141002487EA115284EAE773A2
:1029D0001A4340D0009A62B3019A012A4FEA075283
:1029E00015DC001B61EB02014FF0004202EA0752C6
:1029F000CDE90042001C41F5801132462B4600F023
:102A0000ABF903B0BDE8F08F40462146F9E7001B63
:102A100061EB0201001C41F5801300185B41201896
:102A2000A2F5001747EB030140EAD570B6196D41D6
:102A300011E06D084FEA360645EAC0754FEA0752C5
:102A4000001B61EB0201001C41F5801149084FEAAF
:102A500030000019514132462B4603B0BDE8F04F1B
:102A600000F06BB90098012240000023D0EB020275
:102A700063EBE073009821464FEAE074B8EB000086
:102A800061EB0401E9E783F000435BE781F000417B
:102A900058E72DE9FE4F81EA030404F0004421F0D9
:102AA000004100944FF0000B23F0004350EA010472
:102AB0005ED052EA03045BD0C3F30A54C1F30A5553
:102AC0002C44A4F2F3340194A0FB0254C1F313018B
:102AD00041F48011C3F3130343F4801301FB024458
:102AE00000FB034E840A970A44EA815447EA83575D
:102AF000A4FB076802958D0A05FB07854FEA932C16
:102B000004FB0C542705029D4FEA065847EA163786
:102B1000B5EB08056EEB070C870E920E47EA81179E
:102B200042EA8312A7FB0201B6EB0B0164EB00043F
:102B30002B0D43EA0C335E1844EB1C50DA46514629
:102B4000E7FB0201C5F313044FEA0B3343EA1453C6
:102B50004FEA0432019C43EA0603A4F10C040294F8
:102B6000009CCDE900B400F0F7F803B0BDE8F08FA9
:102B700000200146F9E72DE9F04D81EA030404F055
:102B8000004B21F0004514464FF0000A23F00041AD
:102B900050EA050220D054EA01021DD0C5F30A57BD
:102BA0000246C5F31303C1F31300C1F30A5640F400
:102BB000801543F48013A7EB0608101BD64608F2D5
:102BC000FD3873EB050002D308F1010801E092180B
:102BD0005B41B8F1000F03DA00200146BDE8F08D3B
:102BE00000204FF48011064684460EE0171B73EB5D
:102BF000050705D3121B63EB050306434CEA010CE2
:102C000049084FEA300092185B4150EA0107EDD1C4
:102C100052EA030012D082EA040083EA0501084365
:102C200005D0101BAB4106D20122002306E0002292
:102C30004FF0004302E06FF0010253101AEB060060
:102C40004CEB085110EB0A0041EB0B01BDE8F04DD5
:102C500000F073B8C1F30A52C1F3130140F2FF331D
:102C600041F480119A4202DA00200146704740F296
:102C700033439A42A2F2334202DC524200F03BB8A4
:102C800000F02AB830B5041E71F1000404DB4FF0E7
:102C90000044404264EB0101141E73F1000405DBA3
:102CA0001C464FF00043524263EB0403994208BFB5
:102CB000904230BD064C074D06E0E06840F001034D
:102CC00094E8070098471034AC42F6D3FDF734FA85
:102CD00090370008B0370008202A04DB203A00FAB9
:102CE00002F1002070479140C2F1200320FA03F363
:102CF000194390407047202A04DB203A21FA02F061
:102D00000021704721FA02F3D040C2F12002914025
:102D1000084319467047202A06DBCB17203A41FAB0
:102D200002F043EAE07306E041FA02F3D040C2F158
:102D30002002914008431946704710B5141E73F1E4
:102D4000000408DA401C41F1000192185B411A436B
:102D500001D120F0010010BD2DE9F04D92469B46B7
:102D600011B1B1FA81F202E0B0FA80F2203290465D
:102D7000FFF7B2FF04460F4640EA0A0041EA0B01A2
:102D800053465A46084313D0114653EA010019D05E
:102D9000C8F140025046FFF7AEFF05460E465046CA
:102DA00059464246FFF798FF084305D0012004E04A
:102DB00020463946BDE8F08D0020054346EAE0761E
:102DC0002C4337430A986305E40AA0EB080000226D
:102DD000FD0A44EA47540A3002D500200146E9E7DB
:102DE000010510196941DDE9084500196941BDE88F
:102DF000F04DA2E737B514460846064B6A46214611
:102E000000F0CCF804466946002000F05EFC204645
:102E10003EBD0000CB36000802E008C8121F08C102
:102E2000002AFAD170477047002001E001C1121F4B
:102E3000002AFBD1704700002DE9FF5FDDE9022089
:102E4000010DDDF838B0024318D044F61050A1F25D
:102E5000FF3141430D140F98012820D0A5EB0B0042
:102E6000401C5FEA000A4FF00004474EDFF81C9157
:102E7000A046504616D5CAF1000728E00F98012455
:102E800043A2012808D0002100980F9BC0E900212F
:102E9000C0E90243BDE8FF9F6FEA0B01F4E7CBF105
:102EA0000000DEE7074612E0F80707D02246334667
:102EB00040464946FFF7EDFD8046894622463346A7
:102EC00010461946FFF7E5FD04460E467F10002F19
:102ED000EAD1DDE90201BAF1000F42464B4602DABF
:102EE000FFF7D7FD01E0FFF746FE04460E4600223D
:102EF000284BFFF7C7FE03D84FF0FF30014607E02D
:102F00000022254B20463146FFF71CFDFFF7A2FEAD
:102F1000102409E0002C0ADB0A220023FFF7E1FC61
:102F2000019B30321A55641E50EA0102F2D1641C32
:102F3000019AC4F1110314440F9A012A03D001220B
:102F400008430DD10AE0084304D000204FF0110BD4
:102F50000F9080E7A3EB0B056D1E0DE05B4504DDD4
:102F60004FF0000205F1010504E003DA4FF0000222
:102F7000A5F10105002AECD000980F99C0E90231B3
:102F8000C0E9004586E70000000024400000F03F53
:102F9000300000000000F0430000E03F2DE9FF4F4B
:102FA00095B09B468946064600250FE2252877D135
:102FB00000242746F84A0121059400E0044316F84E
:102FC000013F203B01FA03F01042F7D130782A2864
:102FD00011D06FF02F033078A0F13002092A16D8F3
:102FE000059A44F0020402EB820203EB4202104411
:102FF000761C0590EFE759F8042B0592002A03DAB6
:10300000504244F40054059044F00204761C307899
:103010002E2816D116F8010F44F004042A280DD0EA
:103020006FF02F023078A0F13003092B09D807EB9D
:10303000870302EB4303C718761CF3E759F8047BB8
:10304000761C30786C280FD006DC4C2817D0682806
:103050000DD06A2814D104E0742810D07A280FD13A
:103060000DE044F400140AE044F4801401E044F458
:1030700040147278824202D104F58014761C761CCA
:10308000307866280BD013DC582877D009DC00286C
:1030900075D04528F6D04628F4D047281AD19DE1AE
:1030A00018E0632835D0642879D0652812D195E1DD
:1030B000702873D008DC6728F1D069286FD06E289B
:1030C0000DD06F2806D1B5E073282CD0752875D0A7
:1030D000782874D05A46179990476D1C75E1C4F34F
:1030E0000250022809D003280DD0D9F80010042876
:1030F0000DD00D6009F1040967E1D9F80010EA1755
:10310000C1E90052F6E7D9F800100D80F2E70D7022
:10311000F0E719F8041B8DF8001000208DF801006D
:10312000EA46012003E059F804AB4FF0FF30610795
:103130004FF0000102D40DE008F101018846B942C8
:103140000FDA8045F8DB1AF808100029F4D108E0FE
:1031500008F1010188468142FADB1AF808100029BB
:10316000F6D105985B46A0EB080721463846179A2A
:1031700000F094FA284400EB080507E04DE029E14F
:103180000DE01AF8010B5A4617999047B8F101085B
:10319000F7D25B4621463846179A13E142E00A22ED
:1031A0000092C4F302524FF0000A022A08D059F8E4
:1031B00004CB032A4FEAEC710AD00DE029E02AE0A3
:1031C00009F1070121F00702F2E802C1914609E086
:1031D0000FFA8CFC4FEAEC71042A03D14FFA8CFCF5
:1031E0004FEAEC71002907DA0A460021DCF1000CF5
:1031F00061EB02012D2202E0220504D52B228DF87D
:103200000420012203E0E20701D02022F7E79046E4
:1032100059E00A2102E010220DE010214FF0000ACF
:1032200000910BE010224FF0000A44F0040408273C
:10323000009203E008224FF0000A0092C4F3025209
:10324000022A05D059F804CB0021032A08D009E04E
:1032500009F1070121F00702F2E802C1914605E0F9
:103260001FFA8CFC042A01D10CF0FF0C4FF000086F
:10327000220728D5702806D0009B83F0100353EA5C
:103280000A0305D00EE040228DF80420012208E058
:103290005CEA010206D030228DF804208DF805008A
:1032A00002229046009B83F0080353EA0A030AD1E6
:1032B0005CEA010201D1620705D530228DF80420B5
:1032C0004FF001087F1E582804D034A003900EA8A8
:1032D00002900DE036A0F9E753466046009AFFF7EA
:1032E00000FB84460398825C0298401E02900270A4
:1032F0005CEA0100F0D1029806A9081A00F1200A40
:10330000600702D524F4803400E00127574502DD30
:10331000A7EB0A0000E0002000EB0A0100900598EE
:103320004144401A0590E00306D45B462146179AB3
:10333000059800F0B3F90544002706E001A85A46B5
:10334000C05D179990476D1C7F1C4745F6DBE00375
:103350000CD55B462146179A059800F09FF9054465
:1033600004E030205A46179990476D1C0099481E7A
:1033700000900029F5DC08E0029802995A4600788E
:10338000491C0291179990476D1CBAF10001AAF1EE
:10339000010AF1DC65E10000092801003031323317
:1033A0003435363738396162636465660000000081
:1033B000303132333435363738394142434445466B
:1033C0000000000000F058F90544761C3078002811
:1033D0007FF4ECAD19B02846BDE8F08F620700D449
:1033E000062709F1070222F0070CFCE80223E14658
:1033F00003F000485FEA080C02D00FF2702C0DE0D9
:103400005FEA045C02D50FF2682C07E05FEAC47C37
:1034100002D00FF2602C01E0AFF2700C4FF0FF38D9
:1034200023F00043CDF850C065280CD006DC4528B9
:1034300009D046281DD047283DD13DE0662818D048
:1034400067287ED138E00021112F01DB112000E038
:10345000781CCDE9000106A90EA8FFF7EDFCDDE917
:103460000F010E9A03910021009207F1010A0491C5
:103470004DE04FF000400097CDE9011006A90EA8DD
:10348000FFF7DAFCDDE90F0203920E9B119900228F
:10349000DDF80CA00093049211B9791C00EB010A2D
:1034A000B7EB0A0004D4C0F1FF3007F1010A049021
:1034B000AAEB0700019044E0012F00DA0127002168
:1034C000112F01DD112000E03846CDE9000106A9E9
:1034D0000EA8FFF7B1FCDDE90F010E9A0391002160
:1034E00004910092BA4621070CD40399514500DAA1
:1034F0008A46BAF1010F05DD009AAAF10101515C7B
:10350000302908D0B84202DA10F1040F06DA01219E
:10351000CDE9011015E0AAF10101E9E7002805DC79
:10352000049901440491AAEB000102E0411C5145B9
:1035300000DD8A460499401A401C01904FF000407B
:103540000290200704D40198504501DBCDF8048097
:1035500000208DF84F0002980DF14F07B0F1004F99
:1035600025D02B200E9002984FF0020800280CDA8C
:10357000404202902D200E9007E00A210298FFF7AA
:103580009AF93031029007F8011DB8F10001A8F155
:103590000108F2DC02980028EFD1791E0E9808701D
:1035A000307800F0200040F0450007F8020D12A826
:1035B000C01B00F107081498007800B1012000EB4F
:1035C0000A01019801EBE07105984144401A401E40
:1035D0000590E00306D45B462146179A059800F053
:1035E0005DF805441498007818B15A461799904729
:1035F0006D1CE00324D55B462146179A059800F020
:103600004DF805441CE00498002807DBDDE90301C0
:10361000884203DD0098405C179901E0179930203B
:103620005A469047049805F10105401C0490019802
:10363000401E019004D12E205A46179990476D1CC8
:10364000BAF10001AAF1010ADDDC05E017F8010B6F
:103650005A46179990476D1CB8F10001A8F101086E
:10366000F4DC5B462146179A0598ABE62D00000076
:103670002B000000200000002DE9F0410446002549
:103680001E461746880404D405E039462020B0477A
:103690006D1C641EF9D52846BDE8F0812DE9F04186
:1036A000044600251E469046C80301D5302700E099
:1036B0002027880404D505E041463846B0476D1CF4
:1036C000641EF9D52846BDE8F0810A68531C0B60DA
:1036D0001070704710B5002821D0114B0022001F38
:1036E000196803E0814203D80A4649680029F9D1E4
:1036F00052B11368841A9C4204D1006818441060C7
:10370000104602E0506000E0186039B102680B1A00
:10371000934203D10B681A4402604968416010BDAE
:1037200040000020F0B50B30154D20F007010024BB
:10373000144A0FE003688B420BD38B4205D95E1A03
:1037400043184768C3E9006700E04368136002C09C
:1037500004E0021D10680028ECD12046002802D1A8
:10376000286808B10020F0BD064A07481060074AE3
:10377000121A22F00702C0E9002401202860D7E7CE
:1037800044000020400000208C00002088300020F1
:10379000B03700080000002048000000182E000884
:1037A000F83700084800002040340000282E0008A8
:1037B0000000000000A24A04000000000000000019
:1037C000010203040607080904010000810600083D
:1037D00097060008B106000800C8000000000001BC
:1037E0000203040102030406070809020406080094
:0837F0000000000000000000D1
:0400000508000131BD
:00000001FF
