:020000040800F2
:10000000C8A40020C53A00084D0100084F010008AF
:1000100053010008570100085B01000800000000C0
:100020000000000000000000000000005F01000868
:10003000610100080000000063010008650100087C
:10004000DF3A0008DF3A0008DF3A0008DF3A00082C
:10005000DF3A0008DF3A0008DF3A0008DF3A00081C
:10006000DF3A0008DF3A0008DF3A0008DF3A00080C
:10007000DF3A0008DF3A0008DF3A0008DF3A0008FC
:10008000DF3A0008DF3A0008DF3A0008DF3A0008EC
:10009000DF3A0008DF3A0008DF3A0008DF3A0008DC
:1000A000DF3A0008DF3A0008DF3A0008DF3A0008CC
:1000B000CD310008EB320008DF3A0008DF3A0008D3
:1000C000DF3A0008DF3A0008DF3A00080D2F000889
:1000D000DF3A0008DF3A0008DF3A0008DF3A00089C
:1000E000DF3A0008DF3A0008DF3A0008DF3A00088C
:1000F000DF3A0008DF3A0008DF3A0008DF3A00087C
:10010000DF3A0008DF3A0008DF3A0008DF3A00086B
:10011000DF3A0008DF3A0008DF3A0008DF3A00085B
:10012000DF3A0008DF3A0008DF3A0008DF3A00084B
:10013000DFF80CD006F040F8004800474501000801
:10014000C8A4002006F07CFD00BFFEE7704700BF9A
:10015000FEE700BFFEE700BFFEE700BFFEE7704717
:1001600070477047704700000CB500200190009068
:100170006548006840F001006349086000BF6248BC
:10018000006800F00200019001980028F7D05F4855
:10019000006840F010005D4908600846006820F0E3
:1001A000030008600846006840F0020008605648F6
:1001B00040685549486008464068486008464068BD
:1001C00040F4806048600846406840F40040486061
:1001D0000846406820F47C1048600846406840F4B7
:1001E000601048600846006840F08070086000BFFA
:1001F0004548006800F000700028F9D04248406887
:1002000020F00300404948600846406840F0020082
:10021000486000BF3C48406800F00C000828F9D155
:100220000CBD10B5FFF7A0FF10BD10B53648006833
:1002300040F00100344908600846406834490840ED
:100240003149486008460068324908402E49086034
:100250000846006820F4802008600846406820F4C2
:10026000FE0048604FF41F008860FFF7DAFF4FF090
:1002700000602949086010BD10B50021002000224F
:10028000214B5B6803F00C0121B1042906D0082939
:1002900028D107E0214B224C236027E01F4B204C44
:1002A000236023E0184B5B6803F47010164B5B6807
:1002B00003F48032022303EB904022B9194B4343ED
:1002C000174C23600DE0104B5B6803F4003323B13F
:1002D000144B4343124C236003E0104B4343104C38
:1002E000236003E00D4B0E4C236000BF00BF064BA4
:1002F0005B68C3F303130C4CE15C094B1B68CB40F8
:10030000074C236010BD0000001002400020024096
:100310000000FFF8FFFFF6FE08ED00E000127A0093
:100320000400002000093D000800002010B56548C9
:100330000068007D00B110BD62480068C169614875
:100340000068884700BFF6E72DE9F8435D4800687C
:1003500018B900F065FD5B4908605B48006828B982
:1003600041F2883000F073F95749086000208DF899
:1003700000008DF8010053480068BDF80010C181ED
:1003800050480068BDF8001081812F208DF80000D2
:100390008DF801004B480068BDF8001001824B4801
:1003A00003F0ACFA4668B0470546494803F0A6FAA0
:1003B00086684FF48270B04781464FF4817003F035
:1003C0009DFAD0F80C804846C0478769B847066A4E
:1003D0004048B04704463B48006805603949096811
:1003E0004C60394800683749096888600020354901
:1003F00009688874BDE8F88310B500F084FA00201D
:1004000000F01EFDFFF7A0FF00BF3348006828B9C9
:100410004FF0804003F072FA2F4908602E480068C0
:1004200040F67F418268012090472C482A4909689C
:100430008861294909680869804700BF10BD10B567
:1004400020480068816A1F48006888471F4803F0F9
:10045000C0FA4FF4817003F0BCFA4FF0804003F013
:10046000B8FA1B4803F0B5FA00201B49086015488C
:10047000006800F0D9FC00201249086012480068AA
:1004800000F008F900201049086010BD10B51249AD
:1004900009684869804710BD10B50F4909680869A7
:1004A000804710BD10B507480068007D08B90020DE
:1004B00010BD04480068016A024800688847024885
:1004C0000068F5E7180000201C000020002401400F
:1004D000003800409A99193E200000202D030008A2
:1004E00010B54448006842684348016841480068C4
:1004F00090474148006881683F480068884768B96C
:100500003E48006842683C4801683C4800689047A3
:1005100039480068C168384800688847384800682A
:10052000426835480168364800689047324800689C
:10053000816831480068884768B930480068426877
:100540002D4801682D48006890472B480068C16815
:1005500029480068884710BD10B547F2305000F0B8
:1005600076F82549086000BF01F0B6F801F0C7F839
:100570002249086000BF4FF4827000F061FC00BFA8
:10058000062000F074FC1E49086000BF00BF072071
:1005900000F06DFC1749086000BF00BF194803F068
:1005A000ADF9194908600846006847F6FF418268BE
:1005B00048209047AFF2D70013490968886100BF0F
:1005C000114909680869804710BD10B50C480068DA
:1005D00000F055FC0748006800F051FC074800682F
:1005E00001F093F8074803F0F4F90348006800F0BD
:1005F00051F810BD28000020340000202C000020FD
:1006000024000020000400403000002010B5044603
:10061000A188206800F062F810BD00218180704739
:1006200002461068405C70478288C3889A4200DBAB
:10063000704783885A1C82800268D15400BFF7E754
:100640000146888808B9012070470020FCE770B592
:1006500005461C2006F052FB0446284606F04EFBD9
:1006600006460CB9002070BD26B9204606F01EFBD8
:100670000020F8E72660E5800020A0800A48A060FE
:100680000A4820610A4860610A48E0600A48A0619F
:100690002046E8E710B50446206806F007FB204630
:1006A00006F004FB10BD0000410600082906000802
:1006B000210600081B0600080D06000801468A886E
:1006C000501C88800868805C704701468888CA880A
:1006D000904201DA012070470020FCE770B5054622
:1006E0000E46102006F00AFB04460CB9002070BD2F
:1006F00025600020A080E6800748A0600748E060F1
:100700002046F4E710B5044604B910BD204606F0B3
:10071000CDFA00BFF9E70000CB060008BD060008CF
:10072000C189818100210175704773B504469DF828
:1007300005109DF8040000F069FB2168C868804737
:1007400040F6FF71081A85B228467CBD70B5044694
:100750000026A568207B217C884203DC617B607CCD
:1007600081420DDD01202075E07C20B12046FFF79D
:10077000D7FF0020207520462169FFF7D6FF70BD06
:100780002046E168FFF7D1FF06463DB13112284609
:100790002A699047F1B228462A699047204605F019
:1007A000ABFD3046EBE710B50446616888698047C9
:1007B00010BD10B504466168C869804710BD10B50A
:1007C0002C2006F09BFA04460848A0610848E06126
:1007D00008482062084860620848A062204610BDB0
:1007E00010B50446204606F061FA10BD2B0700083C
:1007F0004D07000821070008A7070008B3070008F5
:100800002DE9F04F87B0FE4803F078F8D0F880006B
:100810000478FC4803F072F880680578F84803F023
:100820006DF8D0F8C8000678F74803F067F8D0F8FC
:1008300028010778F44803F061F8D0F8F80090F840
:100840000080F14803F05AF8D0F8C80090F8009002
:10085000EC4803F053F8D0F8280190F800A0E948DC
:1008600003F04CF8D0F8100190F800B0E54803F020
:1008700045F8D0F8F80000780690E24803F03EF81A
:10088000006A00780590E04803F038F8D0F81001CD
:1008900000780490DC4803F031F8D0F8E0000078EC
:1008A0000390D74803F02AF8D0F8E00000780290CF
:1008B000D34803F023F8D0F8B0000078019060032B
:1008C00040EA053040EAC62040EA872040EA482056
:1008D00040EA092040EACA1040EA8B11069841EA32
:1008E0004011059841EA0011049841EAC0010398BB
:1008F00041EA8001029841EA40000199084380B230
:1009000007B0BDE8F08F10B5BF4802F0F7FFD0F890
:100910008441A047BB4802F0F1FFD0F88441A047D2
:10092000B74802F0EBFFD0F88441A047B44802F08A
:10093000E5FFD0F8840000210160B14802F0DEFF3D
:10094000D0F8880000210160AD4802F0D7FFD0F850
:100950008C0001210160AA4802F0D0FFD0F890007D
:1009600001210160A74802F0C9FFC06800210160B1
:10097000A44802F0C3FF006900210160A14802F011
:10098000BDFF4069012101609E4802F0B7FF806908
:10099000012101609A4802F0B1FFD0F8CC0000219B
:1009A0000160974802F0AAFFD0F8D0000021016052
:1009B000934802F0A3FFD0F8D400012101609048D1
:1009C00002F09CFFD0F8D800012101608E4802F0AF
:1009D00095FFD0F82C01002101608B4802F08EFFBA
:1009E000D0F8300100210160874802F087FFD0F87D
:1009F000340101210160844802F080FFD0F8380101
:100A000001210160804802F079FFD0F8FC0000214C
:100A100001607D4802F072FFD0F800010021016002
:100A2000794802F06BFFD0F804010121016076489B
:100A300002F064FFD0F8080101210160724802F061
:100A40005DFFD0F8CC00002101606F4802F056FF36
:100A5000D0F8D000002101606B4802F04FFFD0F8C1
:100A6000D40001210160684802F048FFD0F8D800A6
:100A700001210160634802F041FFD0F82C01002100
:100A80000160604802F03AFFD0F8300100210160B7
:100A90005C4802F033FFD0F834010121016059486D
:100AA00002F02CFFD0F8380101210160554802F016
:100AB00025FFD0F8140100210160524802F01EFF0A
:100AC000D0F81801002101604E4802F017FFD0F85D
:100AD0001C01012101604B4802F010FFD0F82001F9
:100AE00001210160474802F009FFD0F8FC00002115
:100AF0000160444802F002FFD0F8000100210160CB
:100B0000404802F0FBFED0F80401012101603D489D
:100B100002F0F4FED0F8080101210160394802F02A
:100B2000EDFE406A00210160364802F0E7FE806A6F
:100B300000210160334802F0E1FEC06A012101603A
:100B4000304802F0DBFE006B012101602E4802F00C
:100B5000D5FED0F81401002101602B4802F0CEFE32
:100B6000D0F8180100210160274802F0C7FED0F834
:100B70001C0101210160244802F0C0FED0F82001D0
:100B800001210160204802F0B9FED0F8E400002104
:100B900001601D4802F0B2FED0F8E80000210160BB
:100BA000194802F0ABFED0F8EC00012101601648B4
:100BB00002F0A4FED0F8F00001210160104802F01C
:100BC0009DFED0F8E400002101600D4802F096FE81
:100BD000D0F8E80000210160094802F08FFED0F84B
:100BE000EC0001210160064802F088FED0F8F00018
:100BF00001210160024802F081FED0F8B40005E056
:100C000000100140000C014000080140002101607B
:100C1000884802F073FED0F8B800002101608548D2
:100C200002F06CFED0F8BC0001210160814802F0A6
:100C300065FED0F8C0000121016010BD10B504466A
:100C40007D4802F05BFED0F8280104F0010101604C
:100C5000794802F053FED0F81001C4F3400101605E
:100C6000754802F04BFED0F8F800C4F38001016033
:100C7000714802F043FE006AC4F3C001016010BD78
:100C800010B504466D4802F039FED0F8100104F0AA
:100C900001010160694802F031FED0F8E000C4F3C0
:100CA00040010160634802F029FED0F8E000C4F37F
:100CB000800101605F4802F021FED0F8B000C4F36B
:100CC000C001016010BD10B50446102C17DA204693
:100CD000FFF7B4FF574802F011FED0F88000002162
:100CE0000160554802F00AFE806801210160514808
:100CF00002F004FED0F8C8000121016032E0202C8F
:100D000017DA2046FFF79AFF4A4802F0F7FDD0F8BD
:100D1000800001210160484802F0F0FD8068002158
:100D20000160444802F0EAFDD0F8C80001210160EA
:100D300018E0302C16DA2046FFF780FF3D4802F01D
:100D4000DDFDD0F88000012101603B4802F0D6FDB6
:100D5000806801210160374802F0D0FDD0F8C8005A
:100D60000021016010BD10B50446102C18DA204691
:100D7000FFF786FF314802F0C1FDD0F828010021BD
:100D800001602E4802F0BAFDD0F8F80001210160A0
:100D90002A4802F0B3FDD0F8C8000121016034E018
:100DA000202C18DA2046FFF76BFF244802F0A6FD3E
:100DB000D0F8280101210160204802F09FFDD0F801
:100DC000F800002101601D4802F098FDD0F8C8002D
:100DD0000121016019E0302C17DA2046FFF750FF9F
:100DE000164802F08BFDD0F828010121016013485C
:100DF00002F084FDD0F8F800012101600F4802F0F4
:100E00007DFDD0F8C8000021016010BD70B5054619
:100E10000C462846FFF757FF2046FFF7A4FF70BD9A
:100E200010B5FFF7CCFC10BD10B504462046FFF707
:100E3000D7FC10BD00100140000C0140000801402B
:100E400070B50446B4F5827F0DD1104802F056FD0E
:100E5000D0F88451A8470E4802F050FDD0F88451D4
:100E6000A84700F0E0F80CB900F004FA70BD70B5C6
:100E7000044600F01DFB05462C70284670BD10B5D9
:100E80000446204600F019FC10BD00000008014097
:100E90000010014010B50024784800688169AA203C
:100EA0008847764800688169AA20884773480068A7
:100EB000816900208847714800688169AA208847B5
:100EC0006E4800688169002088470446FD2C03D1E4
:100ED00002206B49087010BDFE2C03D10120684927
:100EE000087004E0FB2C02D002206549087000BFA6
:100EF000F1E770B5002463490968C868804746E097
:100F000024025E4800684169002088474F2500BFE1
:100F1000281EA5F10101CDB2FAD158490968086926
:100F200080470443E1B258480068026956480068A7
:100F300090476FF47F40844222D1002050490870CE
:100F40004E4800688169FF2088474C4800688169E5
:100F5000FF20884749480068816900208847474842
:100F600000688169FF208847474800688088001F23
:100F7000454909688880434909680869804707E04E
:100F8000B4F1FD3F03D102203D49087000E0B7E70E
:100F900000BF70BD10B53D490968086980473A48EF
:100FA0000068C1683848006888473448006881692B
:100FB000FD208847314800688169FF2088472F4815
:100FC00000688169FF2088472C48006881690020FB
:100FD00088472A4800688169FF20884727480068B9
:100FE000816900208847FC2806D100202449087028
:100FF00026490968C868804710BD10B504462248D4
:1010000004601F48007808B9FFF744FF1C480078C7
:10101000012801D1FFF76DFF19480078022801D19E
:10102000FFF7B8FF10BD10B500201549087018482B
:1010300002F064FC114908600846006881684FF4BA
:1010400082708847134802F059FC1049086009680B
:10105000486880470D490968C86880470D48401CAA
:1010600002F04CFC0749086009684868804710BDD9
:1010700010B5074802F0ADFC10BD00003C00002098
:1010800038000020440000204000002048000020DC
:10109000003001402212110010B58C4800688C49C4
:1010A00088420DD08B4801780078401E894A107024
:1010B00029B91F201146087002208749087010BD09
:1010C0001F2084490870FFF7EDF98449086008463D
:1010D0000068B0B1FFF7DAF98048006881697F489D
:1010E000006888477E49086001207B4908707D4977
:1010F0000968C86880477C4800684169FE208847C5
:1011000012E07A4801780078401E784A107031B9B0
:101110001F201146087002206F49087004E07248D1
:1011200000684169FB20884700BFC8E710B56748E1
:1011300000686FF47F41884216D100206C49087026
:1011400067480068FFF7DEFA0020634908706348CB
:101150000068C16861480068884762490968086991
:101160008047FFF799F933E05D48006881685C4883
:101170000068884760B15A480068C16858480068EC
:10118000884704465848006841692046884718E067
:101190005748007802280AD155480078401C544925
:1011A00008705148006841690020884709E05048AC
:1011B0000078401C4E4908704B4800684169FF2088
:1011C00088474B4800780A2802DB02204249087011
:1011D00010BD10B547490968086980473B48006859
:1011E0006FF47F41884217D100203B4908703E4888
:1011F00000684169FC2088473848006828B13748B2
:101200000068C1683548006888473A490968C86875
:101210008047FFF741F904E0334800684169FD2049
:10122000884710BD10B529480068000227490860AA
:101230002D490968086980472449096808432349FA
:10124000086008460078FD2802D102202249087073
:101250002148007808B9FFF71FFF1F4800780128D0
:1012600001D1FFF763FF1C480078022801D1FFF786
:10127000B0FF10BD10B50020174908701E4802F0DD
:101280003DFB194908601D48096848621648006816
:101290008168002088471A4802F030FB1149086035
:1012A0000968486880471648401C02F027FB11492E
:1012B00008600968486880470E490968C86880471F
:1012C00010BD10B50C4802F084FB10BD5800002082
:1012D000AA00AAAA690000204C00002054000020A7
:1012E0005C0000206000002050000020680000200A
:1012F0006A00002064000020003001402512000830
:101300002212110070B505460C46287808287CD2B8
:10131000DFE800F0041E385068829AB2EA4802F012
:10132000EDFAD0F85801002101602046FFF765FE74
:1013300000212046226990470021204622699047DB
:10134000E14802F0DBFAD0F8580101210160ACE07D
:10135000DD4802F0D3FAD0F8700100210160204688
:10136000FFF74BFE3021204622699047002120469E
:1013700022699047D44802F0C1FAD0F870010121E7
:10138000016092E0D04802F0B9FA80680021016063
:101390002046FFF732FE0021204622699047302187
:1013A000204622699047C84802F0A8FA80680121C7
:1013B00001607AE0C44802F0A1FA006A00210160ED
:1013C0002046FFF71AFE302120462269904730213F
:1013D000204622699047BC4802F090FA006A012139
:1013E000016062E0B84802F089FA806B0021016078
:1013F0002046FFF702FE0021204622699047602127
:10140000204622699047B04800E04DE002F076FAAD
:10141000806B0121016048E0AB4802F06FFA006D7B
:10142000002101602046FFF7E8FD302120462269B7
:1014300090476021204622699047A34802F05EFA57
:10144000006D0121016030E0A04802F057FA006A07
:10145000002101602046FFF7D0FD002120462269CF
:1014600090479021204622699047984802F046FA1A
:10147000006A0121016018E0944802F03FFA806B95
:10148000002101602046FFF7B8FD30212046226987
:10149000904790212046226990478C4802F02EFA0E
:1014A000806B0121016000E000BF00BF70BD70478C
:1014B00010B50C2005F022FC044685486060854884
:1014C000A060814802F01AFAD0F85C0100210160A6
:1014D0007D4802F013FAD0F86001002101607A48DB
:1014E00002F00CFAD0F8640101210160764802F0A4
:1014F00005FAD0F8680101210160734802F0FEF995
:10150000D0F87401002101606F4802F0F7F9D0F8BB
:101510007801002101606C4802F0F0F9D0F87C01FC
:1015200001210160684802F0E9F9D0F88001012149
:101530000160654802F0E2F9C0680021016062487C
:1015400002F0DCF90069002101605F4802F0D6F981
:101550004069012101605C4802F0D0F980690121F5
:101560000160594802F0CAF9406A002101605648FA
:1015700002F0C4F9806A00210160534802F0BEF90C
:10158000C06A01210160504802F0B8F9006B0121E6
:1015900001604D4802F0B2F9C06B002101604A4879
:1015A00002F0ACF9006C00210160474802F0A6F996
:1015B000406C01210160444802F0A0F9806C0121D7
:1015C0000160414802F09AF9406D002101603E48F7
:1015D00002F094F9806D002101603B4802F08EF921
:1015E000C06D01210160384802F088F9006E0121C8
:1015F0000160364802F082F9406A002101603348F8
:1016000002F07CF9806A00210160304802F076F92E
:10161000C06A012101602D4802F070F9006B0121C0
:1016200001602A4802F06AF9C06B00210160274876
:1016300002F064F9006C00210160244802F05EF9B8
:10164000406C01210160214802F058F9806C0121B1
:1016500001601D4802F052F9D0F8580101210160E3
:10166000194802F04BF9D0F87001012101601648C9
:1016700002F044F9806801210160134802F03EF94C
:10168000006A01210160104802F038F9806B0121E5
:1016900001600D4802F032F9006D012101600B4834
:1016A00002F02CF9006A01210160084802F026F9D5
:1016B000806B01210160204610BD10B50446204614
:1016C00005F0F4FA10BD00000010014000080140D0
:1016D00005130008AF14000810B50F4802F00EF90A
:1016E0000E4908600846006881684FF4E130884779
:1016F00010BD10B509490968C868804710BD10B50C
:101700000648006800F048F810BD10B504462046B1
:1017100000F04FF810BD0000003801406C000020C0
:101720002DE9F04104460D462846A969884706463A
:1017300020684169AA20884720684169AA20884713
:10174000206841690020884720684169AA208847AD
:1017500007E03046F1688847074620684169384607
:1017600088473046B16888470028F2D1206841692F
:10177000FF20884720684169FF2088472068416929
:101780000020884720684169FF2088473046FEF7DF
:10179000B9FFBDE8F081704770B505460C2005F033
:1017A000ADFA04462560064860600648A060204601
:1017B00070BD10B50446204605F078FA10BD000053
:1017C000211700089717000810B586B001214802BC
:1017D00002F0A6FC4FF4004002F006FC00BF4748B0
:1017E00002F08CF8D0F88441A047444802F086F813
:1017F000C06E00210160414802F080F8006F0021B6
:1018000001603E4802F07AF8406F002101603B48D9
:1018100002F074F8806F0021016000BF384803F0C7
:10182000DBF8002001908DF808008DF809004FF4D6
:10183000602003900020049001208DF8140001A97D
:101840002F4803F0F0F801212D4803F018F92C4837
:1018500003F037F900BF2A4803F038F90028FAD11D
:10186000274803F03DF900BF254803F03EF9002862
:10187000FAD12448006806B010BD10B5204803F026
:10188000ABF810BD10B5072301220E211C4803F050
:1018900062F901211A4803F032F900BF0221184809
:1018A00003F09EFA0028F9D0154803F0BBF910BDEB
:1018B00010B51448006898B9102005F01FFA1149B6
:1018C00008600F48096808600F480E4909684860B9
:1018D0000E480C49096888600D480A490968C860C3
:1018E0000848006810BD10B5FFF7C7FF054800683D
:1018F00005F0DCF900200349086010BD001001402C
:101900000024014070000020C91700087B1800085F
:101910008518000800BF011EA0F1010290B2FAD1A3
:10192000704710B590480068406841695620884764
:101930008D48006840684169002088478A480068EF
:101940004068416901208847FF20FFF7E3FF87488F
:1019500001F0D4FFD0F8F80001210160FF20FFF76B
:10196000D9FF824801F0CAFFD0F8F80000210160D9
:1019700010BD10B57C480068406841695520884713
:1019800079480068406841691020884776480068B7
:101990004068416906208847FF20FFF7BBFF734876
:1019A00001F0ACFFD0F8F80001210160FF20FFF743
:1019B000B1FF6E4801F0A2FFD0F8F80000210160ED
:1019C0006948006810BD10B5674800684068416903
:1019D000552088476448006840684169002088476E
:1019E000614800684068416906208847FF20FFF78A
:1019F00091FF5E4801F082FFD0F8F80001210160FC
:101A0000FF20FFF787FF594801F078FFD0F8F80072
:101A10000021016010BD2DE9F041054654492846DA
:101A200004F041F90746534904F00BF9064604F067
:101A300078F94FF6FF7101EA00144B4800684068DE
:101A40004169012088472012474A1268526851694B
:101A50008847E0B2444A1268526851698847FF20BB
:101A6000FFF758FF414801F049FFD0F8F800012185
:101A70000160FF20FFF74EFF3C4801F03FFFD0F828
:101A8000F8000021016038480068BDE8F08170B5B9
:101A9000044600BF354801F031FFD0F88451A84713
:101AA000324801F02BFFD0F8FC00002101602F48E4
:101AB00001F024FFD0F80001002101602B4801F063
:101AC0001DFFD0F8040101210160284801F016FF34
:101AD000D0F8080101210160244801F00FFFD0F87F
:101AE000F8000021016000BF1F48006844601E48E4
:101AF000006870BD10B5FFF766FFFFF712FF10BD5D
:101B000010B51948006800BB242005F0F7F8164905
:101B100008604FF481700968086017481249096825
:101B2000C860164810490968086115480E490968D7
:101B3000886114480C490968C86113480A49096852
:101B4000486112480849096808620748006810BDE2
:101B500010B5FFF7CFFF0448006805F0A7F8002094
:101B60000149086010BD0000740000200010014011
:101B70000000A04100F07F458F1A0008F51A000808
:101B800073190008C719000823190008171A00085C
:101B9000FE48806940F00400FC4988617047FB48BA
:101BA000806940F00800F94988617047F74880690A
:101BB00040F01000F54988617047F448806940F0B2
:101BC0002000F24988617047F048806920F00400E5
:101BD000EE4988617047ED48806920F00800EB49C4
:101BE00088617047E948806920F01000E749886102
:101BF0007047E648806920F02000E449886170471A
:101C000010B50446E24884427ED1E24800680028CC
:101C10007BD14FF4C67005F071F8DE4908602046AC
:101C200009680860DC48DB4909684860DA498031A6
:101C3000D84800688160D849F439D6480068C16046
:101C4000091FD44800680161091FD248006841613A
:101C5000091FD04800688161CF48001DCD4909683F
:101C6000C861CD498431CB4800680162CA49E43972
:101C7000C84800684162091FC64800688162091FA0
:101C8000C4480068C162091FC24800680163C248B5
:101C90000830C04909684863BF498831BD480068B9
:101CA0008163BD49D439BB480068C163091FB94885
:101CB00000680164091FB74800684164091FB548FE
:101CC00000688164B4480C30B2490968C864B249FC
:101CD0008C31B04800680165AF49C439AD4800682F
:101CE0004165091FAB4800688165091FA948006864
:101CF000C165091FA74800680166A7481030A549BB
:101D000009684866A44901E096E192E19031A14852
:101D100000688166A049B4399E480068C166091F01
:101D20009C4800680167091F9A4800684167091FBD
:101D30009848006881679848143096490968C867D0
:101D40009549943193480068C0F880109249A439AD
:101D500090480068C0F88410091F8E480068C0F8D9
:101D60008810091F8B480068C0F88C10091F89482B
:101D70000068C0F890108848183086490968C1F892
:101D800094008549983183480068C0F898108249CA
:101D9000943980480068C0F89C10091F7D4800688D
:101DA000C0F8A010091F7B480068C0F8A410091FE4
:101DB00078480068C0F8A81077481C307549096851
:101DC000C1F8AC0074499C3172480068C0F8B0108A
:101DD000714984396F480068C0F8B410091F6D4814
:101DE0000068C0F8B810091F6A480068C0F8BC1045
:101DF000091F68480068C0F8C0106748203065496E
:101E00000968C1F8C4006449A03162480068C0F89C
:101E1000C810614974395F480068C0F8CC10091FC8
:101E20005C480068C0F8D010091F5A480068C0F824
:101E3000D410091F57480068C0F8D81056482430FD
:101E400054490968C1F8DC005349A431514800687D
:101E5000C0F8E010504964394E480068C0F8E410FA
:101E6000091F4C480068C0F8E810091F494800687D
:101E7000C0F8EC10091F47480068C0F8F010464849
:101E8000283044490968C1F8F4004349A831414861
:101E90000068C0F8F810404954393E480068C0F85E
:101EA000FC10091F3B480068C0F80011091F3948A1
:101EB0000068C0F80411091F36480068C0F808110E
:101EC00035482C3033490968C1F80C013249AC312E
:101ED00030480068C0F810112F4944392D48006877
:101EE000C0F81411091F2B480068C0F81811091F09
:101EF00028480068C0F81C11091F26480068C0F86F
:101F000020112548303023490968C1F824012249AD
:101F1000B03120480068C0F828111F4934391D48E5
:101F20000068C0F82C11091F1A480068C0F8301169
:101F3000091F18480068C0F83411091F15480068C7
:101F4000C0F838111448343012490968C1F83C010E
:101F50001149B4310F480068C0F840110E492439C6
:101F60000C480068C0F84411091F0A480068C0F80E
:101F70004811091F07480068C0F84C11091F05489F
:101F80000068C0F850110448383007E000100240E3
:101F9000000801407800002000012142FE49096844
:101FA000C1F85401FD49FC480068C0F85811FB49CC
:101FB000CC39F9480068C0F85C11091FF648006880
:101FC000C0F86011091FF4480068C0F86411091FC7
:101FD000F1480068C0F86811F0487C38EE4909689B
:101FE000C1F86C01ED49091DEB480068C0F870119B
:101FF000EA49BC39E8480068C0F87411091FE6488E
:102000000068C0F87811091FE3480068C0F87C1127
:10201000091FE1480068C0F88011AFF28B40DE492B
:102020000968C1F88401AFF25F40DB490968C1F873
:102030008801D948006810BDD94884427ED1D9486A
:10204000006800287BD14FF4C67004F057FED549D4
:102050000860204609680860D348D249096848608A
:10206000D1498031CF4800688160CF49F439CD48EB
:102070000068C160091FCB4800680161091FC94899
:1020800000684161091FC74800688161C648001D9A
:10209000C4490968C861C4498431C2480068016202
:1020A000C149E439BF4800684162091FBD48006862
:1020B0008162091FBB480068C162091FB9480068F6
:1020C0000163B9480830B74909684863B64988319F
:1020D000B44800688163B449D439B2480068C16328
:1020E000091FB04800680164091FAE4800684164D8
:1020F000091FAC4800688164AB480C30A9490968E5
:10210000C864A9498C31A74800680165A649C4394B
:10211000A44800684165091FA24800688165091F3D
:10212000A0480068C165091F9E48006801669E4876
:1021300010309C49096848669B4901E098E194E1A8
:1021400090319848006881669749B439954800688D
:10215000C166091F934800680167091F914800681C
:102160004167091F8F48006881678F4814308D4987
:102170000968C8678C4994318A480068C0F88010A3
:102180008949A43987480068C0F88410091F854828
:102190000068C0F88810091F82480068C0F88C10D9
:1021A000091F80480068C0F890107F4818307D49AA
:1021B0000968C1F894007C4998317A480068C0F8F1
:1021C00098107949943977480068C0F89C10091F25
:1021D00074480068C0F8A010091F72480068C0F871
:1021E000A410091F6F480068C0F8A8106E481C3082
:1021F0006C490968C1F8AC006B499C3169480068BA
:10220000C0F8B0106849843966480068C0F8B41056
:10221000091F64480068C0F8B810091F61480068C9
:10222000C0F8BC10091F5F480068C0F8C0105E48C5
:1022300020305C490968C1F8C4005B49A0315948A5
:102240000068C0F8C8105849743956480068C0F88A
:10225000CC10091F53480068C0F8D010091F51481E
:102260000068C0F8D410091F4E480068C0F8D810A4
:102270004D4824304B490968C1F8DC004A49A43173
:1022800048480068C0F8E01047496439454800688C
:10229000C0F8E410091F43480068C0F8E810091F9F
:1022A00040480068C0F8EC10091F3E480068C0F8BC
:1022B000F0103D4828303B490968C1F8F4003A491C
:1022C000A83138480068C0F8F81037495439354803
:1022D0000068C0F8FC10091F32480068C0F80011FF
:1022E000091F30480068C0F80411091F2D48006814
:1022F000C0F808112C482C302A490968C1F80C0193
:102300002949AC3127480068C0F8101126494439E2
:1023100024480068C0F81411091F22480068C0F85A
:102320001811091F1F480068C0F81C11091F1D481B
:102330000068C0F820111C4830301A490968C1F8FB
:1023400024011949B03117480068C0F8281116490E
:10235000343914480068C0F82C11091F114800686E
:10236000C0F83011091F0F480068C0F83411091F68
:102370000C480068C0F838110B4834300949096826
:10238000C1F83C010849B43106480068C0F8401162
:1023900005492439034809E078000020B8012142AA
:1023A000000C01407C000020008121420068C0F840
:1023B0004411091FFE480068C0F84811091FFC4875
:1023C0000068C0F84C11091FF9480068C0F85011A6
:1023D000F848F7490968C1F85401F6498031F448D2
:1023E0000068C0F85811F3494C39F1480068C0F84A
:1023F0005C11091FEE480068C0F86011091FEC4825
:102400000068C0F86411091FE9480068C0F8681145
:10241000E848001DE6490968C1F86C01E5498431C6
:10242000E3480068C0F87011E2493C39E0480068B0
:10243000C0F87411091FDE480068C0F87811091F40
:10244000DB480068C0F87C11091FD9480068C0F853
:102450008011AFF6B500D6490968C1F88401AFF61E
:102460008900D3490968C1F88801D1480068E2E5CC
:10247000D14884427ED1D148006800287BD14FF4F6
:10248000C67004F03BFCCD4908602046096808602E
:10249000CB48CA4909684860C9498031C7480068C3
:1024A0008160C749F439C5480068C160091FC34845
:1024B00000680161091FC14800684161091FBF48E8
:1024C00000688161BE48001DBC490968C861BC49FB
:1024D0008431BA4800680162B949E439B7480068F4
:1024E0004162091FB54800688162091FB34800684E
:1024F000C162091FB14800680163B1480830AF49A3
:1025000009684863AE498831AC4800688163AC49CA
:10251000D439AA480068C163091FA848006801644B
:10252000091FA64800684164091FA4480068816427
:10253000A3480C30A1490968C864A1498C319F485F
:10254000006801659E49C4399C4800684165091FBF
:102550009A4800688165091F98480068C165091F8D
:1025600096480068016696481030944909684866A4
:10257000934901E099E195E19031904800688166C6
:102580008F49B4398D480068C166091F8B480068BF
:102590000167091F894800684167091F874800686B
:1025A00081678748143085490968C8678449943130
:1025B00082480068C0F880108149A4397F480068CB
:1025C000C0F88410091F7D480068C0F88810091FF2
:1025D0007A480068C0F88C10091F78480068C0F875
:1025E00090107748183075490968C1F8940074490B
:1025F000983172480068C0F89810714994396F4852
:102600000068C0F89C10091F6C480068C0F8A01052
:10261000091F6A480068C0F8A410091F67480068CD
:10262000C0F8A81066481C3064490968C1F8AC00BD
:1026300063499C3161480068C0F8B0106049843932
:102640005E480068C0F8B410091F5C480068C0F814
:10265000B810091F59480068C0F8BC10091F574836
:102660000068C0F8C0105648203054490968C1F8C5
:10267000C4005349A03151480068C0F8C8105049FF
:1026800074394E480068C0F8CC10091F4B480068E8
:10269000C0F8D010091F49480068C0F8D410091FBD
:1026A00046480068C0F8D8104548243043490968B6
:1026B000C1F8DC004249A43140480068C0F8E0108D
:1026C0003F4964393D480068C0F8E410091F3B48A1
:1026D0000068C0F8E810091F38480068C0F8EC101E
:1026E000091F36480068C0F8F010354828303349D3
:1026F0000968C1F8F4003249A83130480068C0F8D0
:10270000F8102F4954392D480068C0F8FC10091FF3
:102710002A480068C0F80011091F28480068C0F85E
:102720000411091F25480068C0F8081124482C30FE
:1027300022490968C1F80C012149AC311F480068E1
:10274000C0F810111E4944391C480068C0F8141123
:10275000091F1A480068C0F81811091F17480068B7
:10276000C0F81C11091F15480068C0F82011144852
:10277000303012490968C1F824011149B0310F48BD
:102780000068C0F828110E4934390C480068C0F8B8
:102790002C11091F09480068C0F83011091F0748AB
:1027A0000068C0F83411091F044800680AE00000FE
:1027B0007C00002038812142001001408000002070
:1027C00000012242C0F83811FD48FE490968C1F8ED
:1027D0003C01FB498031FB480068C0F84011F849D2
:1027E0005839F8480068C0F84411091FF5480068D6
:1027F000C0F84811091FF3480068C0F84C11091FC0
:10280000F0480068C0F85011ED48001DED49096816
:10281000C1F85401EA498431EA480068C0F8581107
:10282000E7494839E7480068C0F85C11091FE548E6
:102830000068C0F86011091FE2480068C0F8641120
:10284000091FE0480068C0F86811DD480830DD491C
:102850000968C1F86C01DA498831DA480068C0F8C3
:102860007011D7493839D7480068C0F87411091F6A
:10287000D4480068C0F87811091FD2480068C0F831
:102880007C11091FCF480068C0F88011AFF6E34003
:10289000CC490968C1F88401AFF6B740C949096855
:1028A000C1F88801C7480068E1E5C74884427DD186
:1028B000C648006800287AD14FF4C67004F01EFAAA
:1028C000C2490860204609680860C148BF490968D4
:1028D0004860BF498031BD4800688160BC49F43917
:1028E000BA480068C160091FB84800680161091F43
:1028F000B64800684161091FB44800688161B44866
:10290000001DB2490968C861B1498431AF48006807
:102910000162AF49E439AD4800684162091FAB4824
:1029200000688162091FA9480068C162091FA748A1
:1029300000680163A6480830A44909684863A449AF
:102940008831A24800688163A149D4399F48006852
:10295000C163091F9D4800680164091F9B48006806
:102960004164091F99480068816499480C3097496F
:102970000968C86496498C31944800680165944997
:10298000C439924800684165091F90480068816514
:10299000091F8E480068C165091F8C4800680166E0
:1029A0008B48103089490968486601E098E194E154
:1029B000874990318548006881668549B4398348E4
:1029C0000068C166091F814800680167091F7F48C8
:1029D00000684167091F7D48006881677C481430A2
:1029E0007A490968C8677A49943178480068C0F81C
:1029F00080107749A43975480068C0F88410091F11
:102A000072480068C0F88810091F70480068C0F854
:102A10008C10091F6D480068C0F890106C48183081
:102A20006A490968C1F894006949983167480068A3
:102A3000C0F898106649943964480068C0F89C1042
:102A4000091F62480068C0F8A010091F5F480068AD
:102A5000C0F8A410091F5D480068C0F8A8105C48C1
:102A60001C305A490968C1F8AC0059499C31574893
:102A70000068C0F8B0105649843954480068C0F85E
:102A8000B410091F51480068C0F8B810091F4F481A
:102A90000068C0F8BC10091F4C480068C0F8C0109E
:102AA0004B48203049490968C1F8C4004849A03161
:102AB00046480068C0F8C810454974394348006862
:102AC000C0F8CC10091F41480068C0F8D010091F99
:102AD0003E480068C0F8D410091F3C480068C0F8A0
:102AE000D8103B48243039490968C1F8DC0038491E
:102AF000A43136480068C0F8E010354964393348DD
:102B00000068C0F8E410091F30480068C0F8E810F9
:102B1000091F2E480068C0F8EC10091F2B480068F8
:102B2000C0F8F0102A48283028490968C1F8F40094
:102B30002749A83125480068C0F8F81024495439BD
:102B400022480068C0F8FC10091F20480068C0F83F
:102B50000011091F1D480068C0F80411091F1B4817
:102B60000068C0F808111A482C3018490968C1F8E3
:102B70000C011749AC3115480068C0F81011144910
:102B8000443912480068C0F81411091F0F48006842
:102B9000C0F81811091F0D480068C0F81C11091F62
:102BA0000A480068C0F82011094830300749096810
:102BB000C1F824010649B031044800680AE0000069
:102BC00034012242800000200014014084000020D3
:102BD00000812242C0F82811584959480068C0F8BD
:102BE0002C11091F56480068C0F83011091F5448BD
:102BF0000068C0F83411091F51480068C0F8381146
:102C00004E4868304E490968C1F83C014B49E831EB
:102C10004B480068C0F840114849103148480068E6
:102C2000C0F84411091F46480068C0F84811091F40
:102C300043480068C0F84C11091F41480068C0F8BB
:102C400050113E486C303E490968C1F854013B4977
:102C5000EC313B480068C0F85811384920313848F9
:102C60000068C0F85C11091F35480068C0F86011A1
:102C7000091F33480068C0F86411091F3048006814
:102C8000C0F868112D4870302D490968C1F86C01F1
:102C90002A49F0312A480068C0F8701127493031BC
:102CA00027480068C0F87411091F25480068C0F85B
:102CB0007811091F22480068C0F87C11091F2048BC
:102CC0000068C0F880111F481D490968C1F88401D7
:102CD0001D481B490968C1F8880119480068E3E5E7
:102CE0000020E1E510B504461848844206D1184892
:102CF000006803F0DBFF0020154908601548844296
:102D000006D11548006803F0D1FF00201249086081
:102D10001248844206D11248006803F0C7FF002021
:102D20000F4908600F48844206D10548006803F047
:102D3000BDFF00200249086010BD0000CC80224287
:102D400084000020BB1B0008F31B000800080140A2
:102D500078000020000C01407C00002000100140A1
:102D6000800000200014014038B5044603208DF88F
:102D70000200B4F5827F17D10121042001F0D0F9BF
:102D8000A020ADF8000018208DF8030069468448A3
:102D900000F00AFF4020ADF8000004208DF8030089
:102DA00069467F4800F000FF0CBB0121042001F0C0
:102DB000B7F96020ADF8000018208DF803006946CF
:102DC000774800F0F1FE8020ADF8000004208DF877
:102DD00003006946724800F0E7FE1020ADF80000DD
:102DE00048208DF8030069466D4800F0DDFE38BDCF
:102DF00008B523208DF800004FF4A06001F0F8FB27
:102E000001208DF8010003208DF8020001208DF8CB
:102E10000300684601F0F1FB08BD10B500226021F7
:102E2000604801F036FD10BD10B5012260215D48FB
:102E300001F02FFD10BD10B586B004462046FFF707
:102E400093FF0CB9FFF7D4FF0121080301F068F9E3
:102E50001CB90020ADF80E0003E04FF40070ADF88F
:102E60000E000020ADF80800ADF806402020ADF8B7
:102E700010000020ADF80400ADF80A00ADF80C0019
:102E8000ADF812000720ADF8140001A9454801F083
:102E900043FC0121434801F0E4FC4348006884807E
:102EA0000CB9FFF7C1FF4048006806B010BD10B56F
:102EB000FFF7B3FF10BD10B500BF0121394801F085
:102EC00054FD0028F9D0374801F0FEFCC0B210BD17
:102ED00010B5044600BF0221324801F046FD00282B
:102EE000F9D021462F4801F0EDFC10BD70B5044625
:102EF00040F2FF252046FFF7EBFF00BF281EA5F19B
:102F000001018DB2FAD1FFF7D6FF70BD10B5602177
:102F1000244801F036FD58B123480068406A18B1D2
:102F200021490968486A804760211E4801F043FD35
:102F300010BD10B51C48006818BB282003F0DEFE49
:102F4000194908601748096808601848164909684F
:102F50008860174814490968C8601648124909680A
:102F60000861154810490968486114480E49096804
:102F7000886113480C490968C86112480A49096800
:102F800008620948006810BD10B5FFF790FF0648B9
:102F9000006803F08BFE00200349086010BD0000AC
:102FA000000801400030014088000020372E000852
:102FB000AF2E0008B72E0008D12E0008ED2E000815
:102FC0001B2E0008292E000808B503208DF80200EA
:102FD0000121082001F0A4F84FF42040ADF80000D2
:102FE00018208DF8030069464B4800F0DDFD4FF4D2
:102FF0008040ADF8000004208DF803006946464883
:1030000000F0D2FD08BD10B586B00446FFF7DCFF26
:103010000121880301F091F84FF40070ADF80E0023
:103020000020ADF80800ADF806402020ADF81000F3
:103030000020ADF80400ADF80A00ADF80C00ADF8C2
:1030400012000720ADF8140001A9344801F064FB18
:103050000121324801F005FC314800688480304885
:10306000006806B010BD704710B500BF01212B48A5
:1030700001F07BFC0028F9D0284801F025FCC0B203
:1030800010BD10B5044600BF0221244801F06DFCBC
:103090000028F9D02146214801F014FC10BD70B57C
:1030A0000446FF252046FFF7ECFF00BF281EA5F1D0
:1030B0000101CDB2FAD1FFF7D7FF70BD10B51848A6
:1030C0000068D8B9282003F019FE15490860134894
:1030D0000968086013481249096888601248104955
:1030E0000968C86011480E490968086110480C4910
:1030F000096848610F480A490968886108480068FA
:1031000010BD10B5FFF7AFFF0548006803F0CEFD16
:1031100000200349086010BD000C01400038004049
:103120008C00002007300008673000086930000874
:10313000833000089F3000087FB505460C4601210A
:10314000084600F0FAFFADF80850ADF80440002042
:10315000ADF80A00ADF8060001A94FF0804001F07B
:1031600037FF01221146900702F0A9FA4FF4A06040
:1031700001F03EFA1C208DF8000001208DF80100BE
:1031800003208DF8020001208DF80300684601F04D
:1031900034FA2D48006885802B480068C4802A488E
:1031A000006804B070BD10B54FF0804001F03CFEE7
:1031B00010BD10B50121880702F066FA10BD10B5E8
:1031C00000214FF0804002F05FFA10BD10B50121E0
:1031D000880702F022FD58B11B480068806918B1C9
:1031E00019490968886980470121880702F026FD8E
:1031F00010BD10B514480068C0B91C2003F07EFD56
:10320000114908604FF08040096808600F480E4976
:10321000096888600E480C490968C8600D480A4969
:10322000096808610C48084909684861064800684F
:1032300010BD10B5FFF7B7FF0348006803F036FD77
:1032400000200149086010BD9000002039310008BD
:10325000A7310008B3310008BF3100087FB505462B
:103260000C460121022000F068FFADF80850ADF8CF
:1032700004400020ADF80A00ADF8060001A9394865
:1032800001F0A6FE01221146364802F018FA4FF46A
:10329000A06001F0ADF91D208DF8000001208DF82F
:1032A000010003208DF8020001208DF8030068461C
:1032B00001F0A3F92C48006885802B480068C48081
:1032C0002948006804B070BD10B5264801F0ACFD77
:1032D00010BD10B50121234802F0D6F910BD10B57C
:1032E0000021204802F0D0F910BD10B501211D4881
:1032F00002F093FC58B11C480068806918B11A4963
:103300000968886980470121164802F097FC10BDC2
:1033100010B515480068B8B91C2003F0EFFC12493D
:10332000086010480968086010480F4909688860FB
:103330000F480D490968C8600E480B4909680861C3
:103340000D480949096848610748006810BD10B573
:10335000FFF7BAFF0448006803F0A8FC0020024908
:10336000086010BD00040040940000205D32000899
:10337000C9320008D3320008DF32000810B586B029
:1033800004460121880300F0CBFE00BF0121042088
:1033900000F0C6FE03208DF806004FF40070ADF873
:1033A000040018208DF8070001A9454800F0FCFB37
:1033B0004FF48060ADF8040004208DF8070001A9E7
:1033C0003F4800F0F1FB00BF02940020ADF80C0074
:1033D000ADF80E00ADF81000ADF814000C20ADF8FB
:1033E000120002A9374800F042FF0121354800F0E1
:1033F000CAFF3548006844603348006806B010BD15
:1034000070470FB470B58AB00024002600250FA8BD
:10341000019002A8019A0E9902F090FFC4B2002018
:1034200001900FE000BF8021264801F087F80028B6
:10343000F9D03046711CCEB202A90D5C2946214854
:1034400001F00EF8201EA4F10101CCB2EAD10AB0BD
:1034500070BC5DF814FB10B5044600BF802119480C
:1034600001F06CF80028F9D02146164800F0F8FF6A
:1034700010BD10B51448006898B9282003F03EFC30
:103480001149086011480968886011480E490968A7
:10349000C86010480C49096848610F480A49096822
:1034A00088610948006810BD10B5FFF7A9FF0648FC
:1034B000006803F0FBFB00200349086010BD00001A
:1034C0000008014000380140980000207D330008CA
:1034D00001340008573400080334000810B53B4895
:1034E00000F00CFAD0F8B0000021016010BD10B55A
:1034F000364800F003FAD0F8B0000121016010BD99
:1035000010B5324800F0FAF9D0F8B000006808B9F8
:10351000012400E000242D4800F0F0F9D0F8B000BC
:10352000046010BD10B5294800F0E8F9D0F88441D6
:10353000A047264800F0E2F9D0F8B400002101606D
:10354000224800F0DBF9D0F8B800002101601F48E4
:1035500000F0D4F9D0F8BC00012101601B4800F054
:10356000CDF9D0F8C00001210160FFF7C0FF184875
:10357000006810BD10B5FFF7BAFF10BD10B51448B4
:103580000068B8B9182003F0B9FB11490860114868
:103590000968486010480E49096888600F480C495E
:1035A0000968C8600E480A49096808610D48084959
:1035B000096848610648006810BD10B504480068F5
:1035C00003F074FB00200249086010BD000C0140AC
:1035D0009C0000202535000875350008DD34000802
:1035E000EF3400080135000810B53B4800F086F9BB
:1035F000D0F898000021016010BD10B5364800F0E9
:103600007DF9D0F898000121016010BD10B5324855
:1036100000F074F9D0F89800006808B9012400E0BF
:1036200000242D4800F06AF9D0F89800046010BD1D
:1036300010B5294800F062F9D0F88441A047264827
:1036400000F05CF9D0F89C0000210160224800F0F5
:1036500055F9D0F8A000002101601F4800F04EF994
:10366000D0F8A400012101601B4800F047F9D0F810
:10367000A80001210160FFF7C0FF1848006810BDD5
:1036800010B5FFF7BAFF10BD10B514480068B8B9FF
:10369000182003F033FB114908601148096848609D
:1036A00010480E49096888600F480C490968C860CD
:1036B0000E480A49096808610D48084909684861C7
:1036C0000648006810BD10B50448006803F0EEFA23
:1036D00000200249086010BD000C0140A00000203D
:1036E0003136000881360008E9350008FB3500084E
:1036F0000D36000810B5374800F000F9806B002146
:10370000016010BD10B5334800F0F8F8806B01215E
:10371000016010BD10B52F4800F0F0F8806B006814
:1037200008B9012400E000242A4800F0E7F8806B83
:10373000046010BD10B5274800F0E0F8D0F88441CF
:10374000A047244800F0DAF8C06B0021016021484E
:1037500000F0D4F8006C002101601E4800F0CEF8A3
:10376000406C012101601B4800F0C8F8806C012109
:103770000160FFF7C7FF1848006810BD10B5FFF7DC
:10378000C1FF10BD10B514480068B8B9182003F087
:10379000B5FA1149086011480968486010480E4997
:1037A000096888600F480C490968C8600E480A49D2
:1037B000096808610D4808490968486106480068B9
:1037C00010BD10B50448006803F070FA00200249EB
:1037D000086010BD00140140A40000203537000827
:1037E0007D370008F5360008053700081537000852
:1037F00010B53B4800F082F8D0F8C8000021016005
:1038000010BD10B5364800F079F8D0F8C800012195
:10381000016010BD10B5324800F070F8D0F8C80053
:10382000006808B9012400E000242D4800F066F883
:10383000D0F8C800046010BD10B5294800F05EF84B
:10384000D0F88441A047264800F058F8D0F8CC00C2
:1038500000210160224800F051F8D0F8D00000218A
:1038600001601F4800F04AF8D0F8D400012101603F
:103870001B4800F043F8D0F8D80001210160FFF7A1
:10388000C0FF1848006810BD10B5FFF7BAFF10BDA3
:1038900010B514480068B8B9182003F02FFA114980
:1038A000086011480968486010480E490968886036
:1038B0000F480C490968C8600E480A490968086140
:1038C0000D480849096848610648006810BD10B5F0
:1038D0000448006803F0EAF900200249086010BDBE
:1038E00000080140A8000020393800088938000885
:1038F000F1370008033800081538000810B50446F1
:103900006949601A8C4229D013DCB4F1804F3DD054
:1039100008DCB4F5817F36D06448204488B30128A0
:1039200055D14BE06248204460B3B0F5505F4ED1B2
:1039300035E0B0F5E05F21D009DCB0F5806F11D043
:10394000B0F5006F12D0B0F5406F40D112E0B0F585
:10395000205F21D0B0F5405F39D123E05248FEF717
:103960004FF910BD5348FEF74BF9FAE75248FEF7FE
:1039700047F9F6E75148FEF743F9F2E7FDF798FFFC
:10398000EFE712E005E0FEF7BBF8EAE7FFF731FCEE
:10399000E7E7FFF7BDFCE4E7FFF7CBFAE1E7FFF766
:1039A0008DFBDEE7FFF765FDDBE74548007810B1EA
:1039B000FFF7E8FED5E7FFF7E1FDD2E740480078E2
:1039C00010B1FFF765FFCCE7FFF75EFEC9E7002007
:1039D000C7E710B504463449601A8C422AD014DC7B
:1039E000B4F1804F3CD009DCB4F5817F35D02F484D
:1039F0002044002844D0012854D14AE02C482044D7
:103A000088B3B0F5505F4DD134E0B0F5E05F21D020
:103A100009DCB0F5806F11D0B0F5006F12D0B0F5B1
:103A2000406F3FD112E0B0F5205F20D0B0F5405F8D
:103A300038D122E01C48FFF755F933E01D48FFF765
:103A400051F92FE01C48FFF74DF92BE01B48FFF719
:103A500049F927E0FDF747FF24E0FEF779F821E078
:103A6000FFF7E7FB1EE0FFE7FFF771FC1AE0FFF747
:103A70008BFA17E0FFF745FB14E0FFF715FD11E0A7
:103A80000F48007810B1FFF79CFE01E0FFF795FDAD
:103A900008E00B48007810B1FFF719FF01E0FFF7CD
:103AA00012FE00BF00BF10BD00080140DEEDEEFFBA
:103AB00000FCFFBF000C0140001001400014014059
:103AC000000000200648804706480047FEE7FEE762
:103AD000FEE7FEE7FEE7FEE7FEE7FEE7FEE7FEE7BE
:103AE0002B0200083101000810B50446CC4884427E
:103AF00008D10121042000F02DFB0021042000F05A
:103B000029FB46E0C748844208D10121082000F083
:103B100021FB0021082000F01DFB3AE0C24884424E
:103B200008D10121102000F015FB0021102000F029
:103B300011FB2EE0BD48844208D10121202000F075
:103B400009FB0021202000F005FB22E0B848844258
:103B500008D10121402000F0FDFA0021402000F0B2
:103B6000F9FA16E0B348844208D10121802000F020
:103B7000F1FA0021802000F0EDFA0AE0AE4884421C
:103B800007D10121801500F0E5FA0021A01500F011
:103B9000E1FA10BD10B50121084600F0DBFA002162
:103BA000012000F0D7FA10BD2DE9F04102460025B2
:103BB0000026002000230024002791F803C00CF009
:103BC0000F0591F803C00CF0100CBCF1000F03D0EE
:103BD00091F802C04CEA050591F800C0BCF1000F55
:103BE00031D0146800202BE04FF0010C0CFA00F3E8
:103BF000B1F800C00CEA03069E4220D183004FF0CA
:103C00000F0C0CFA03F7BC4305FA03FC4CEA04045E
:103C100091F803C0BCF1280F06D14FF0010C0CFA4B
:103C200000FCC2F814C00AE091F803C0BCF1480FD0
:103C300005D14FF0010C0CFA00FCC2F810C0401C7A
:103C40000828D1D31460B1F800C0BCF1FF0F34DDF7
:103C5000546800202EE000F1080C4FF0010808FA2B
:103C60000CF3B1F800C00CEA03069E4221D1830098
:103C70004FF00F0C0CFA03F7BC4305FA03FC4CEAB7
:103C8000040491F803C0BCF1280F05D100F1080C21
:103C900008FA0CF8C2F8148091F803C0BCF1480F80
:103CA00007D100F1080C4FF0010808FA0CF8C2F82F
:103CB0001080401C0828CED35460BDE8F0814FF638
:103CC000FF710180022181700421C170704702469A
:103CD000002093680B400BB1012000E000207047EA
:103CE0000146886880B2704702460020D3680B40C6
:103CF0000BB1012000E0002070470146C86880B287
:103D0000704701617047416170470AB1016100E08D
:103D100041617047C16070474FF480320A4382614D
:103D20008161826182698269704702460020434B4B
:103D300018684FF68073184040EA021008433F4B62
:103D4000186070473E49C8617047F0B50A460023C5
:103D500000240021002500F00046B6F1004F02D1FA
:103D6000364EF16901E0354E7168C0F3034583B208
:103D700000F44016B6F5401F08D121F070612F4EB7
:103D8000766826F070662D4F7E6012E000F4801693
:103D9000B6F5801F06D1032606FA05F4A14341F0CB
:103DA000706106E0460D360103FA06F6B14341F0B4
:103DB000706122B1460D360103FA06F6314300F078
:103DC0000046B6F1004F02D11C4EF16101E01B4EDE
:103DD0007160F0BD30B500228B071C0F0F2303FA72
:103DE00004F2164B08338C1053F824309343134CD1
:103DF00008348D1044F8253023468C1053F82430B5
:103E00008C07240F00FA04F423430C4C08348D1063
:103E100044F8253030BD0A49DC31086070470000A5
:103E200000080140000C0140001001400014014056
:103E300000180140001C014000200140000001402A
:103E400000002042DF48006840F00100DD490860C2
:103E500008464068DC490840DA494860084600687E
:103E6000DA490840D74908600846006820F48020F5
:103E700008600846406820F4FE0048604FF41F00C8
:103E800088607047CF49096821F48031CD4A1160BC
:103E90001146096821F480211160B0F5803F03D0FC
:103EA000B0F5802F0ED106E0C649096841F4803193
:103EB000C44A116007E0C349096841F4A021C14A1E
:103EC000116000E000BF00BF704710B5014600223E
:103ED000002300204A11012A02D1BA4C236806E0CF
:103EE000022A02D1B74C236A01E0B64C636A01F0A2
:103EF0001F02012494401C400CB1012000E000206E
:103F000010BD38B5002000900024002500BF3120EE
:103F1000FFF7DBFF05460098401C00900098B0F5C5
:103F2000A06F01D0002DF2D03120FFF7CEFF08B1F5
:103F3000012400E00024204638BD01460020A14AAB
:103F4000106820F0F80040EAC10010607047A049F6
:103F500008607047024600209A4B586820F47C1095
:103F600042EA01031843974B586070479849086626
:103F7000704701460020934A506820F00300084330
:103F8000506070478F48406800F00C007047014651
:103F900000208C4A506820F0F000084350607047C1
:103FA00001460020874A506820F4E06008435060D2
:103FB000704701460020834A506820F4605040EA70
:103FC000C1005060704729B17E4A527A02437D4B4E
:103FD0005A7204E07B4A527A82437A4B5A72704793
:103FE0007B49D8310860704701460020754A506807
:103FF00020F440400843506070470021714A20324D
:104000001170704A82F82010012802D004280AD1C9
:1040100004E001216B4A2032117005E00521694A54
:104020002032117000E000BF00BF7047694908608E
:1040300070476449096A0143624A116270476549E1
:1040400044390860704730B5002100220024002365
:104050005C4D6D6805F00C0121B1042905D00829DB
:1040600023D105E05C4D056022E05B4D05601FE05B
:10407000544D6D6805F47012524D6D6805F480342E
:10408000022505EB92421CB9544D554305600BE0E7
:104090004C4D6D6805F400351DB1504D554305601C
:1040A00002E04D4D5543056002E04B4D056000BFF9
:1040B00000BF444D6D6805F0F0010909484D6B5C87
:1040C0000568DD4045603F4D6D6805F4E061090A13
:1040D000434D6B5C4568DD4085603A4D6D6805F485
:1040E0006051C90A3E4D6B5C4568DD40C560354D89
:1040F0006D6805F44041890B3A4D6B5CC568B5FBB2
:10410000F3F5056130BD29B12E4A526902432D4BAA
:104110005A6104E02B4A526982432A4B5A61704724
:1041200029B1284A92690243264B9A6104E0254A44
:1041300092698243234B9A61704729B1214AD2691F
:104140000243204BDA6104E01E4AD26982431D4BD0
:10415000DA61704729B11B4AD2680243194BDA6011
:1041600004E0184AD2688243164BDA60704729B1DE
:10417000144A12690243134B1A6104E0114A12698E
:104180008243104B1A6170471249403908607047EA
:104190000F49C86470470B49C87170470948406AA5
:1041A00040F0807007494862704701460020054A88
:1041B00092680A400AB1012000E0002070470149DE
:1041C00088727047001002400000FFF8FFFFF6FE03
:1041D000000042428004424200127A0000093D0081
:1041E000AC000020BC00002010B50446FB4884420F
:1041F00009D101218803FFF7ADFF00214FF4804072
:10420000FFF7A8FF32E0F648844209D101214804B3
:10421000FFF7ADFF00214FF40030FFF7A8FF25E0C6
:10422000F048844209D101218804FFF7A0FF002152
:104230004FF48020FFF79BFF18E0EB48844209D140
:104240000121C804FFF793FF00214FF40020FFF77E
:104250008EFF0BE0E548844208D101210805FFF7F5
:1042600086FF00214FF48010FFF781FF10BD2DE97C
:10427000F04786B005460E460024A24600BFA14680
:104280000027B08900B100BF2F462C8A4CF6FF7082
:104290000440F08804432C82AC894EF6F3100440AD
:1042A000B08831890843718908430443AC81AC8AE2
:1042B0004FF6FF400440B0890443AC8201A8FFF7E9
:1042C000C2FEC648874202D1DDF810A001E0DDF849
:1042D0000CA0A88900F4004040B10AEBCA0000EB32
:1042E0000A1031684900B0FBF1F807E00AEBCA0098
:1042F00000EB0A1031688900B0FBF1F86420B8FBCC
:10430000F0F004012009642101FB1089A88900F460
:10431000004040B1322000EBC900B0FBF1F000F0EA
:104320000700044308E0322000EB09106421B0FBD1
:10433000F1F000F00F0004432C8106B0BDE8F087D7
:104340004FF41651016000218180C18001810C2150
:10435000418100218181704710B502460020108AFA
:104360004FF2FF0318400B884C8823438C8823436B
:10437000CC8823431843108210BD00210180418066
:104380008180C180704721B1828942F400528281CC
:1043900004E082894DF6FF731A4082817047F0B5C0
:1043A0000346002400260025002040F66A17B94283
:1043B00000D100BF1846C1F3421401F01F060127C7
:1043C00007FA06F5012C01D10C3004E0022C01D1D2
:1043D000103000E014301AB107682F43076002E084
:1043E0000768AF430760F0BD1AB1838A0B4383822D
:1043F00002E0838A8B4383827047028A4FF6F07310
:104400001A400282028A0A430282704782894FF26E
:10441000FF731A40828182890A438281704721B1E9
:10442000828942F00202828104E082894FF6FD73A4
:104430001A4082817047028A4FF6DF731A40028267
:10444000028A0A430282704721B1028A42F4804202
:10445000028204E0028A4BF6FF731A400282704720
:10446000C1F308028280704701468888C0F30800C3
:104470007047818941F0010181817047028BD2B27E
:104480000283028B42EA012202837047028B02F40C
:104490007F420283028B0A430283704721B1828AE2
:1044A00042F02002828204E0828A4FF6DF731A40D3
:1044B0008282704721B1828A42F01002828204E037
:1044C000828A4FF6EF731A408282704721B1828A46
:1044D00042F00802828204E0828A4FF6F7731A40A3
:1044E0008282704721B1828942F40042828103E0D6
:1044F0008289C2F30E028281704721B1828A42F41E
:104500000062828204E0828A4FF2FF731A40828244
:104510007047828A4FF6FB731A408282828A0A436E
:104520008282704721B1828A42F00202828204E0D4
:10453000828A4FF6FD731A4082827047024600203D
:10454000B1F5007F00D100BF13880B400BB10120F3
:1045500000E00020704701F40072B2F5007F00D146
:1045600000BFCA430280704770B502460024002392
:104570000025002040F66A16B14200D100BFC1F309
:10458000421501F01F03012606FA03F3012D02D1A3
:104590009689334006E0022D02D1168A334001E0AD
:1045A000968A33400C12012606FA04F41688344029
:1045B00013B10CB1012000E0002070BD10B5002245
:1045C000002340F66A14A14200D100BF0A12012460
:1045D0009440A3B2DC43048010BD000000380140C9
:1045E0000044004000480040004C004000500040A3
:1045F00031490143314A1160704770B500210023F1
:104600000F22C47804B32D4C246804F4E064C4F58C
:10461000E064210AC1F10403CA40447804FA03F1BA
:104620008478144021430901254C0678A15504786B
:1046300004F01F050124AC4005786D11AD0005F1B3
:10464000E025C5F8004109E0047804F01F050124C5
:10465000AC401C4D0678761145F8264070BD1A4ACC
:104660000A400243154B1B1F1A60704739B1134AA9
:10467000121D12680243114B1B1D1A6006E00F4AFF
:10468000121D126882430D4B1B1D1A6070470428CF
:1046900008D14FF0E021096941F004014FF0E02218
:1046A000116107E04FF0E021096921F004014FF0AA
:1046B000E0221161704700000000FA050CED00E0F7
:1046C00000E400E080E100E080FFFF1F10B5044639
:1046D000BE48844208D101218014FFF73BFD002130
:1046E000A014FFF737FD16E0B948844208D1012134
:1046F0000014FFF73CFD00212014FFF738FD0AE00D
:10470000B448844207D10121C013FFF730FD0021D6
:10471000E013FFF72CFD10BD10B50022028802F453
:1047200041520B884C8823438C882343CC882343F5
:104730000C8923434C8923438C892343CC8923430D
:104740001A430280838B4FF2FF74234083830B8ACA
:10475000038210BD2DE9F04F85B005460C464FF0A1
:10476000000902274FF000084FF0010B0026B24667
:10477000A88B4FF240010840A88302202884B5F896
:104780001C90A068022801D100BF38E0A08810B9B1
:104790004FF0010B01E04FF0020B8D48854200D134
:1047A00000E000BF6846FFF74EFCDDF800A0E0889F
:1047B000B0F5007F0AD14FEA1A2000EB80004000DC
:1047C000A168B0FBF1F0401D86B20BE04FEA4B1040
:1047D000BAFBF0F000EB80004000A168B0FBF1F004
:1047E000401D86B20A20B6FBF0F606F00108A6EBE3
:1047F0000800C0F34F074FF6FF7000EA0828022FA9
:1048000001DBFF2F02DD02274FF00008E08840EABD
:10481000080038432884A088A18908436188084398
:104820002188084340F4006040EA0909A5F81C907B
:1048300005B0BDE8F08F0021018041808180C180FA
:10484000018141818181C18107210182704700215D
:10485000018041808180C1800221816000218181AD
:10486000704721B1028842F04002028004E00288D1
:104870004FF6BF731A400280704721B1828B42F419
:104880008062828304E0828B4FF6FF331A4082837A
:10489000704730B5002400230C110125A540ABB2B0
:1048A0001AB185881D43858002E085889D438580F7
:1048B00030BD1AB183880B43838002E083888B4329
:1048C00083807047818170470146888970474FF621
:1048D000FF62914204D0028842F48072028004E0B8
:1048E00002884FF6FF631A400280704721B1828828
:1048F00042F00402828004E082884FF6FB731A4083
:104900008280704702884FF2FF731A40028002884B
:104910000A4302807047018841F48051018070474A
:1049200021B1028842F40052028004E002884DF670
:10493000FF731A400280704702460020012901D00F
:10494000108B00E0908A70470146088A7047B1F5E5
:10495000804F04D1028842F48042028004E0028841
:104960004BF6FF731A4002807047024600201389FD
:104970000B400BB1012000E000207047CA430281C8
:104980007047F0B50246002000240023002501F006
:104990000F070126BE40B4B20B1101269E40B3B2F0
:1049A000968806EA03051689264016B10DB1012046
:1049B00000E00020F0BD10B5002201F00F0401233B
:1049C000A3409AB2D343038110BD000000300140E0
:1049D00000380040003C004010B50446FA488442CC
:1049E00008D101214015FFF7B5FB00216015FFF745
:1049F000B1FB17E0F548844208D101210015FFF70B
:104A0000A9FB00212015FFF7A5FB0BE0F04884422D
:104A100008D10121C803FFF79DFB00214FF400409E
:104A2000FFF798FB10BD30B5024600200023506808
:104A3000E84C20400D790C6844EA0524204350607E
:104A40009068E54C2040D1E902542C434D7944EA6A
:104A5000450420439060D06A20F470000C7C641EF2
:104A6000E4B2234340EA0350D06230BD002101602C
:104A7000017141718160C16001210174704721B1F0
:104A8000826842F00102826003E0826822F0010243
:104A90008260704721B1826842F48072826003E0D4
:104AA000826822F480728260704710B50023CBB216
:104AB0001AB144681C43446002E044689C4344606B
:104AC00010BD816841F008018160704701460020F7
:104AD0008A6802F008020AB1012000E00020704755
:104AE000816841F0040181607047014600208A68B6
:104AF00002F004020AB1012000E00020704721B159
:104B0000826842F4A002826003E0826822F4A0027C
:104B100082607047014600208A6802F480020AB170
:104B2000012000E00020704710B50A460021002354
:104B3000416821F46041531E41EA4331416010BD98
:104B400021B1426842F40062426003E0426822F40C
:104B5000006242607047F0B504460D460020002117
:104B6000092D11DDE068A5F10A0606EB46070726C8
:104B700006FA07F18843A5F10A0606EB460603FA92
:104B800006F10843E0600CE0206905EB45070726C5
:104B900006FA07F1884305EB450603FA06F10843D8
:104BA0002061072A0FDA606B561E06EB86071F2668
:104BB00006FA07F18843561E06EB860605FA06F14B
:104BC0000843606322E00D2A0FDA206BD61F06EB44
:104BD00086071F2606FA07F18843D61F06EB8606CE
:104BE00005FA06F10843206310E0E06AA2F10D0621
:104BF00006EB86071F2606FA07F18843A2F10D0689
:104C000006EB860605FA06F10843E062F0BD21B125
:104C1000826842F48012826003E0826822F480128B
:104C2000826070470146C86C80B2704766484C305D
:104C30000068704721B1426842F48062426003E03C
:104C4000426822F480624260704721B1426842F4B7
:104C50008052426003E0426822F480524260704712
:104C60000A460021816821F4E041114381607047C8
:104C700021B1826842F40042826003E0826822F43B
:104C800000428260704721B1826842F40212826061
:104C900003E0826822F4021282607047014600201D
:104CA0008A6802F400120AB1012000E00020704777
:104CB000F0B504461546002000220026092911DD22
:104CC000E068A1F10A0707EB470C072707FA0CF287
:104CD0009043A1F10A0707EB470703FA07F21043D5
:104CE000E0600CE0206901EB410C072707FA0CF2A9
:104CF000904301EB410703FA07F210432061A06BD8
:104D0000C0F30156EF1C06F1010CA7EB0C0707EBF3
:104D1000870C1F2707FA0CF29043EF1C06F1010CD9
:104D2000A7EB0C0707EB870701FA07F21043A06314
:104D3000F0BD10B50A4600210023816B21F440111B
:104D4000531E41EA0351816310BD08B5002300934F
:104D50000090009B0B440093009B1A6008BD08B5AF
:104D6000024600200090009201F12800009B1844A8
:104D700000900098006880B208BD0A460021416892
:104D8000164B19401143416070474162826270477F
:104D90000A460021416821F01F011143416070471C
:104DA00040B109490831096841F40001064A083256
:104DB000116007E004490831096821F40001024A42
:104DC00008321160704700000024014000280140B3
:104DD000003C0140FFFEF0FFFDF7F1FFFFFD3FFF4C
:104DE0000246002013680B400BB1012000E00020B8
:104DF0007047CA430260704770B502460020002326
:104E000000240B125568CEB205EA060415681D4051
:104E100015B10CB1012000E0002070BD00220A1283
:104E2000D34303607047000010B50446FE48844237
:104E300008D10121C014FFF78DF90021E014FFF71C
:104E400089F9C4E0B4F1804F08D101210846FFF789
:104E50008EF900210120FFF78AF9B8E0F348844277
:104E600008D101210220FFF782F900210220FFF77B
:104E70007EF9ACE0EE48844208D101210420FFF71E
:104E800076F900210420FFF772F9A0E0E948844296
:104E900008D101210820FFF76AF900210820FFF757
:104EA00066F994E0E448844208D101211020FFF71C
:104EB0005EF900211020FFF75AF988E0DF488442AC
:104EC00008D101212020FFF752F900212020FFF70F
:104ED0004EF97CE0DA48844208D101214014FFF702
:104EE00039F900216014FFF735F970E0D5488442A4
:104EF00009D10121C804FFF72DF900214FF400204A
:104F0000FFF728F963E0D048844209D10121080560
:104F1000FFF720F900214FF48010FFF71BF956E04E
:104F2000CA48844209D101214805FFF713F900213D
:104F30004FF40010FFF70EF949E0C548844208D14C
:104F400001214020FFF713F900214020FFF70FF95E
:104F50003DE0C048844208D101218020FFF707F9D5
:104F600000218020FFF703F931E0BB48844208D1DB
:104F700001218015FFF7FBF80021A015FFF7F7F8D6
:104F800025E0B648844209D101210804FFF7E2F880
:104F900000214FF48030FFF7DDF818E0B04884427C
:104FA00009D101214804FFF7D5F800214FF4003062
:104FB000FFF7D0F80BE0AB48844208D10121880408
:104FC000FFF7C8F800214FF48020FFF7C3F810BDA9
:104FD00000220288944B98420ED0994B98420BD0F5
:104FE000B0F1804F08D0914B984205D0904B984239
:104FF00002D0904B984204D14FF68F731A404B88E1
:105000001A438D4B984207D08C4B984204D04FF6F0
:10501000FF431A40CB881A4302808B8883850B8814
:105020000385814B98420BD0854B984208D08B4B1F
:10503000984205D08A4B984202D08A4B984201D1BF
:105040000B7A038601238382704770B50024002207
:105050000023058C4FF6FE7635400584028C83884C
:10506000048B4FF68F752C40B51E2C400D882C43B9
:10507000751E2A400D892A434D882A436A4DA8424D
:105080000BD06F4DA84208D0744DA84205D0744D86
:10509000A84202D0734DA84213D14FF6F7752A40AB
:1050A0004D892A434FF6FB752A408D882A434FF6D7
:1050B000FF652B404FF6FF552B408D892B43CD8943
:1050C0002B4383800483CD888586028470BD70B5B0
:1050D000002400220023058C4FF6EF76354005842E
:1050E000028C8388048B48F6FF752C404FF6FF45F1
:1050F0002C400D884FF6FF7606EA05252C434FF627
:10510000DF752A400D8906EA05152A434D8806EA0F
:1051100005152A43444DA84202D0494DA8421DD14D
:105120004FF67F752A404D894FF6FF7606EA051542
:105130002A434FF6BF752A408D8806EA05152A4393
:105140004FF6FF352B404FF2FF752B408D8906EA55
:1051500085052B43CD8906EA85052B43838004838F
:10516000CD880587028470BD70B50024002200231D
:10517000058C4FF6FF6635400584028C8388848B4E
:105180004FF68F752C404FF6FC752C400D882C4344
:105190004FF6FF552A400D894FF6FF7606EA0525A2
:1051A0002A434D8806EA05252A431F4DA84202D00E
:1051B000234DA8421DD14FF2FF752A404D894FF66D
:1051C000FF7606EA05252A434FF6FF352A408D88EB
:1051D00006EA05252A434EF6FF752B404DF6FF756E
:1051E0002B408D8906EA05152B43CD8906EA051566
:1051F0002B4383808483CD888587028470BD70B5FE
:10520000002200230024058C4EF6FF7635400584ED
:10521000038C8488828B48F6FF752A404FF6FF4541
:105220002A400D8820E00000002C014000040040CE
:1052300000080040000C0040001000400014004036
:1052400000340140004C0140005001400054014036
:1052500000180040001C00400020004000400140B9
:1052600000440140004801404FF6FF7606EA05255C
:105270002A434DF6FF752B400D8906EA05352B4371
:105280004D8806EA05352B43FA4DA84202D0FA4D67
:10529000A84208D14BF6FF752C408D894FF6FF765A
:1052A00006EA85152C4384808283CD88A0F840507F
:1052B000038470BD828B4FF2FF331A408283828B4E
:1052C0004FF6FF7303EA01231A4382837047F0B558
:1052D0000C461546002200210026078C4EF6FF7C66
:1052E00007EA0C070784828B018C4FF6FF7707EAE9
:1052F000043640F6FF473A404FF6FF7707EA0527A6
:105300003A434FF6FF7707EA03373A43D94FB8429B
:105310000ED0D94FB8420BD0B0F1804F08D0D74F44
:10532000B84205D0D64FB84202D0D64FB84206D1C7
:105330004DF6FF77394046F48057394305E047F68C
:10534000FF57394044F48057394382830184F0BDCC
:10535000828B4FF6F3731A408283828B0A438283D7
:105360007047F0B50C461546002200210026078C38
:105370004FF6FF6C07EA0C070784828B018C4FF60F
:10538000FF7707EA04264FF60C773A404FF6FF778F
:1053900007EA03172F433A43B64FB8420ED0B64F31
:1053A000B8420BD0B0F1804F08D0B44FB84205D00E
:1053B000B34FB84202D0B34FB84206D14FF6FF57B1
:1053C000394046F48077394305E04FF2FF573940C2
:1053D00044F48077394382830184F0BD028B4FF21D
:1053E000FF331A400283028B4FF6FF7303EA012357
:1053F0001A4302837047F0B50C461546002200217F
:105400000026078C4FF6EF7C07EA0C070784028B17
:10541000018C4FF6FF7707EA041640F6FF473A4043
:105420004FF6FF7707EA03373A434FF6FF7707EA6D
:1054300005273A438F4FB8420ED08F4FB8420BD05A
:10544000B0F1804F08D08D4FB84205D08C4FB84294
:1054500002D08C4FB84206D14FF6DF77394046F084
:105460001007394305E04FF65F77394044F01007E5
:10547000394302830184F0BD028B4FF6F3731A4067
:105480000283028B0A4302837047F0B50C4615462F
:1054900000220021068C4FF6FE773E400684028BE8
:1054A000018C4FF60C7632407E1C06EA03162E4322
:1054B0003243704EB0420ED06F4EB0420BD0B0F1BE
:1054C000804F08D06D4EB04205D06D4EB04202D034
:1054D0006C4EB04206D14FF6FD76314044F00106E5
:1054E000314305E04FF6F576314044F00106314393
:1054F00002830184F0BD70B505460C465D488542C7
:105500000ED05D4885420BD0B5F1804F08D05B4886
:10551000854205D05A48854202D05A48854200D17A
:1055200000E000BF208850B92389A28861882846FE
:10553000FFF7ABFFE1882846FFF79EFF25E02088B4
:1055400004280AD12389A28861882846FFF753FFDF
:10555000E1882846FFF742FF17E0208808280AD193
:105560002389A28861882846FFF7FBFEE188284648
:10557000FFF7EEFE09E02389A28861882846FFF73D
:10558000A6FEE1882846FFF795FE70BD2DE9F041A3
:1055900005460C4600260127608808B9022600E06F
:1055A0000026A088012801D1022700E001272088D9
:1055B000A0B92389A28861882846FFF766FFE188A1
:1055C0002846FFF759FF23893A4631462846FFF718
:1055D00012FFE1882846FFF701FF13E02389A28824
:1055E00061882846FFF707FFE1882846FFF7F6FEA7
:1055F00023893A4631462846FFF747FFE188284687
:10560000FFF73AFFBDE8F0810A884B881A438B8880
:105610001A43CB881A430B891A434B891A438B8947
:105620001A43A0F8442070474FF6FF718180002193
:105630000180C1804180017270470021018041805A
:105640008180C180018141818181C18170470021B8
:1056500001804180012181800021C180018170474A
:105660000021018041808180C1800181418181814F
:1056700070470000002C014000340140000400404D
:1056800000080040000C004021B1028842F00102F5
:10569000028004E002884FF6FE731A4002807047D1
:1056A00031B1B0F8442042F40042A0F8442005E0B3
:1056B000B0F84420C2F30E02A0F8442070471AB19B
:1056C00083890B43838102E083898B438381704705
:1056D0008182704741EA0203A0F8483070471AB14E
:1056E00083890B43838102E083898B4383817047E5
:1056F00001894FF6F8721140018170470A46002176
:1057000001894FF68F73194011430181704730B5FD
:1057100004460D4629462046FFF7F0FF208940F059
:105720000700208130BD2DE9F04104460D461646A4
:105730001F46602D06D13B46012231462046FFF729
:105740005AFE05E03B46012231462046FFF79DFE0A
:1057500029462046FFF7D2FF208940F0070020812C
:10576000BDE8F08130B50C4600210189C9B24FF681
:10577000FF7505EA0325154325432943018130BD03
:105780002DE9F04105460E4617469846002443464B
:105790003A4631462846FFF7E5FF2C894FF6F87068
:1057A000044044F007044FF68F70044044F0700446
:1057B0002C81BDE8F081F0B504460D4616461F4623
:1057C0003B46324629462046FFF7CCFF208940F46D
:1057D00080402081F0BD0185828270470A46002109
:1057E00001884FF68F731940114301807047F0B55F
:1057F0000C4615461E460021002200230189028B1B
:10580000038C4FF6F877394021434FF6FC473A4076
:1058100040F201173A434FF6DD773B404FF6FF77F2
:1058200007EA06172F433B43018102830384F0BD3F
:105830000A460021018B4FF68F73194011430183F3
:1058400070470A460021018B48F6FF7319404FF656
:10585000FF7303EA02231943018370470A460021BC
:10586000818B4FF68F7319401143818370470A462D
:105870000021818B48F6FF7319404FF6FF7303EA4E
:10588000022319438183704721B1028842F08002CC
:10589000028004E002884FF67F731A40028070474E
:1058A00021B1828842F00402828004E082884FF6AF
:1058B000FB731A408280704721B1828842F008024F
:1058C000828004E082884FF6F7731A408280704726
:1058D00021B1828842F00102828004E082884FF682
:1058E000FE731A40828070470A460021018B4FF6F2
:1058F000F77319401143018370470A460021018B59
:105900004FF2FF7319404FF6FF7303EA0223194366
:10591000018370470A460021818B4FF6F7731940C7
:105920001143818370470A460021818B4FF2FF7338
:1059300019404FF6FF7303EA02231943818370472E
:105940000A460021018B4FF6FB7319401143018376
:1059500070470A460021018B4FF6FF3319404FF67E
:10596000FF7303EA02231943018370470A460021AB
:10597000818B4FF6FB7319401143818370470A46B0
:105980000021818B4FF6FF3319404FF6FF7303EA76
:1059900002231943818370470A460021018B4FF689
:1059A0007F7319401143018370470A460021018B20
:1059B000C1F30E014FF6FF7303EA0223194301837B
:1059C00070470A460021818B4FF67F7319401143BF
:1059D000818370470A460021818BC1F30E014FF687
:1059E000FF7303EA02231943818370470A460021AB
:1059F000018C4FF6FD7319401143018470470A462C
:105A00000021018C4FF6F773194011430184704750
:105A10000A460021018C4FF6DF7319404FF6FF73E1
:105A200003EA02131943018470470A460021018CDE
:105A30004FF67F7319404FF6FF7303EA02131943C1
:105A4000018470470A460021018C4FF6FF5319402C
:105A50004FF6FF7303EA02231943018470470A4695
:105A60000021018C4FF2FF7319404FF6FF7303EAD8
:105A700002231943018470470A460021018C4DF628
:105A8000FF7319404FF6FF7303EA02331943018491
:105A9000704730B5002301248C40A3B2048C9C4392
:105AA0000484048C02FA01F5ADB22C43048430BDA9
:105AB00030B5002304248C40A3B2048C9C4304849E
:105AC000048C02FA01F5ADB22C43048430BD70B5EC
:105AD0000346002000241846183001258D40ACB242
